{
  "contractName": "Match",
  "abi": [
    {
      "constant": false,
      "inputs": [
        {
          "name": "_name",
          "type": "string"
        },
        {
          "name": "_isStarter",
          "type": "bool"
        }
      ],
      "name": "createPlayerByToken",
      "outputs": [],
      "payable": false,
      "stateMutability": "nonpayable",
      "type": "function"
    },
    {
      "constant": true,
      "inputs": [
        {
          "name": "",
          "type": "uint256"
        }
      ],
      "name": "playerToOwner",
      "outputs": [
        {
          "name": "",
          "type": "address"
        }
      ],
      "payable": false,
      "stateMutability": "view",
      "type": "function"
    },
    {
      "constant": true,
      "inputs": [],
      "name": "totalTokenSupply",
      "outputs": [
        {
          "name": "",
          "type": "uint256"
        }
      ],
      "payable": false,
      "stateMutability": "view",
      "type": "function"
    },
    {
      "constant": false,
      "inputs": [],
      "name": "initPlayers",
      "outputs": [],
      "payable": false,
      "stateMutability": "nonpayable",
      "type": "function"
    },
    {
      "constant": true,
      "inputs": [
        {
          "name": "",
          "type": "address"
        },
        {
          "name": "",
          "type": "uint256"
        }
      ],
      "name": "ownerMatches",
      "outputs": [
        {
          "name": "",
          "type": "uint256"
        }
      ],
      "payable": false,
      "stateMutability": "view",
      "type": "function"
    },
    {
      "constant": true,
      "inputs": [
        {
          "name": "",
          "type": "address"
        }
      ],
      "name": "ownerOwnedTokens",
      "outputs": [
        {
          "name": "",
          "type": "uint256"
        }
      ],
      "payable": false,
      "stateMutability": "view",
      "type": "function"
    },
    {
      "constant": true,
      "inputs": [
        {
          "name": "_owner",
          "type": "address"
        }
      ],
      "name": "getOwnerOwnedPlayers",
      "outputs": [
        {
          "name": "",
          "type": "uint256[]"
        }
      ],
      "payable": false,
      "stateMutability": "view",
      "type": "function"
    },
    {
      "constant": false,
      "inputs": [
        {
          "name": "_playerId",
          "type": "uint256"
        }
      ],
      "name": "setPlayerAsStarter",
      "outputs": [],
      "payable": false,
      "stateMutability": "nonpayable",
      "type": "function"
    },
    {
      "constant": true,
      "inputs": [
        {
          "name": "_playerId",
          "type": "uint256"
        }
      ],
      "name": "getPlayerByPlayerId",
      "outputs": [
        {
          "name": "",
          "type": "string"
        },
        {
          "name": "",
          "type": "uint256"
        },
        {
          "name": "",
          "type": "uint256"
        },
        {
          "name": "",
          "type": "bool"
        },
        {
          "name": "",
          "type": "bool"
        }
      ],
      "payable": false,
      "stateMutability": "view",
      "type": "function"
    },
    {
      "constant": false,
      "inputs": [
        {
          "name": "_playerId",
          "type": "uint256"
        }
      ],
      "name": "buyPlayer",
      "outputs": [],
      "payable": false,
      "stateMutability": "nonpayable",
      "type": "function"
    },
    {
      "constant": true,
      "inputs": [],
      "name": "tokenPrice",
      "outputs": [
        {
          "name": "",
          "type": "uint256"
        }
      ],
      "payable": false,
      "stateMutability": "view",
      "type": "function"
    },
    {
      "constant": true,
      "inputs": [
        {
          "name": "",
          "type": "uint256"
        }
      ],
      "name": "onSellPlayerList",
      "outputs": [
        {
          "name": "",
          "type": "uint256"
        }
      ],
      "payable": false,
      "stateMutability": "view",
      "type": "function"
    },
    {
      "constant": true,
      "inputs": [
        {
          "name": "",
          "type": "address"
        },
        {
          "name": "",
          "type": "uint256"
        }
      ],
      "name": "ownerOwnedPlayers",
      "outputs": [
        {
          "name": "",
          "type": "uint256"
        }
      ],
      "payable": false,
      "stateMutability": "view",
      "type": "function"
    },
    {
      "constant": true,
      "inputs": [
        {
          "name": "",
          "type": "address"
        }
      ],
      "name": "ownerCountry",
      "outputs": [
        {
          "name": "",
          "type": "string"
        }
      ],
      "payable": false,
      "stateMutability": "view",
      "type": "function"
    },
    {
      "constant": false,
      "inputs": [
        {
          "name": "_playerId",
          "type": "uint256"
        }
      ],
      "name": "sellPlayer",
      "outputs": [],
      "payable": false,
      "stateMutability": "nonpayable",
      "type": "function"
    },
    {
      "constant": true,
      "inputs": [
        {
          "name": "",
          "type": "uint256"
        }
      ],
      "name": "matchArray",
      "outputs": [
        {
          "name": "player1",
          "type": "address"
        },
        {
          "name": "player2",
          "type": "address"
        },
        {
          "name": "status",
          "type": "uint8"
        }
      ],
      "payable": false,
      "stateMutability": "view",
      "type": "function"
    },
    {
      "constant": false,
      "inputs": [
        {
          "name": "_name",
          "type": "string"
        },
        {
          "name": "_isStarter",
          "type": "bool"
        }
      ],
      "name": "createRandomPlayer",
      "outputs": [],
      "payable": false,
      "stateMutability": "nonpayable",
      "type": "function"
    },
    {
      "constant": true,
      "inputs": [],
      "name": "onSalePlayers",
      "outputs": [
        {
          "name": "",
          "type": "uint256[]"
        }
      ],
      "payable": false,
      "stateMutability": "view",
      "type": "function"
    },
    {
      "constant": false,
      "inputs": [
        {
          "name": "_country",
          "type": "string"
        }
      ],
      "name": "setCountry",
      "outputs": [],
      "payable": false,
      "stateMutability": "nonpayable",
      "type": "function"
    },
    {
      "constant": true,
      "inputs": [
        {
          "name": "_owner",
          "type": "address"
        }
      ],
      "name": "getCountry",
      "outputs": [
        {
          "name": "",
          "type": "string"
        }
      ],
      "payable": false,
      "stateMutability": "view",
      "type": "function"
    },
    {
      "constant": true,
      "inputs": [],
      "name": "balanceTokens",
      "outputs": [
        {
          "name": "",
          "type": "uint256"
        }
      ],
      "payable": false,
      "stateMutability": "view",
      "type": "function"
    },
    {
      "constant": false,
      "inputs": [
        {
          "name": "_playerId",
          "type": "uint256"
        }
      ],
      "name": "removePlayerFromStarter",
      "outputs": [],
      "payable": false,
      "stateMutability": "nonpayable",
      "type": "function"
    },
    {
      "constant": true,
      "inputs": [
        {
          "name": "",
          "type": "uint256"
        }
      ],
      "name": "players",
      "outputs": [
        {
          "name": "name",
          "type": "string"
        },
        {
          "name": "dna",
          "type": "uint256"
        },
        {
          "name": "power",
          "type": "uint256"
        },
        {
          "name": "isStarter",
          "type": "bool"
        },
        {
          "name": "onSale",
          "type": "bool"
        }
      ],
      "payable": false,
      "stateMutability": "view",
      "type": "function"
    },
    {
      "anonymous": false,
      "inputs": [
        {
          "indexed": false,
          "name": "player1",
          "type": "address"
        },
        {
          "indexed": false,
          "name": "player2",
          "type": "address"
        },
        {
          "indexed": false,
          "name": "matchId",
          "type": "uint256"
        },
        {
          "indexed": false,
          "name": "player1Result",
          "type": "string"
        },
        {
          "indexed": false,
          "name": "player2Result",
          "type": "string"
        }
      ],
      "name": "NewMatch",
      "type": "event"
    },
    {
      "anonymous": false,
      "inputs": [
        {
          "indexed": false,
          "name": "playerId",
          "type": "uint256"
        },
        {
          "indexed": false,
          "name": "name",
          "type": "string"
        },
        {
          "indexed": false,
          "name": "dna",
          "type": "uint256"
        },
        {
          "indexed": false,
          "name": "power",
          "type": "uint256"
        }
      ],
      "name": "NewPlayer",
      "type": "event"
    },
    {
      "constant": false,
      "inputs": [],
      "name": "attendMatch",
      "outputs": [
        {
          "name": "",
          "type": "uint256"
        }
      ],
      "payable": false,
      "stateMutability": "nonpayable",
      "type": "function"
    },
    {
      "constant": true,
      "inputs": [],
      "name": "getOtherWaitingPlayerAddress",
      "outputs": [
        {
          "name": "",
          "type": "address"
        }
      ],
      "payable": false,
      "stateMutability": "view",
      "type": "function"
    },
    {
      "constant": true,
      "inputs": [
        {
          "name": "_owner",
          "type": "address"
        }
      ],
      "name": "getTeamStarters",
      "outputs": [
        {
          "name": "",
          "type": "uint256[]"
        }
      ],
      "payable": false,
      "stateMutability": "view",
      "type": "function"
    },
    {
      "constant": true,
      "inputs": [
        {
          "name": "_owner",
          "type": "address"
        }
      ],
      "name": "queryCurrentMatch",
      "outputs": [
        {
          "name": "",
          "type": "string"
        }
      ],
      "payable": false,
      "stateMutability": "view",
      "type": "function"
    },
    {
      "constant": true,
      "inputs": [
        {
          "name": "_owner",
          "type": "address"
        }
      ],
      "name": "queryMyLatestMatchResult",
      "outputs": [
        {
          "name": "",
          "type": "address"
        },
        {
          "name": "",
          "type": "string"
        }
      ],
      "payable": false,
      "stateMutability": "view",
      "type": "function"
    }
  ],
  "bytecode": "0x60806040526008600055600054600a0a6001556000600655610160604051908101604052806040805190810160405280600881526020017f5069636b666f726400000000000000000000000000000000000000000000000081525081526020016040805190810160405280600481526020017f4b616e650000000000000000000000000000000000000000000000000000000081525081526020016040805190810160405280600881526020017f52617368666f726400000000000000000000000000000000000000000000000081525081526020016040805190810160405280600781526020017f57656c6265636b0000000000000000000000000000000000000000000000000081525081526020016040805190810160405280600581526020017f436865656b00000000000000000000000000000000000000000000000000000081525081526020016040805190810160405280600581526020017f4a6f6e657300000000000000000000000000000000000000000000000000000081525081526020016040805190810160405280600581526020017f596f756e6700000000000000000000000000000000000000000000000000000081525081526020016040805190810160405280600681526020017f436168696c6c000000000000000000000000000000000000000000000000000081525081526020016040805190810160405280600481526020017f526f73650000000000000000000000000000000000000000000000000000000081525081526020016040805190810160405280600881526020017f537465726c696e6700000000000000000000000000000000000000000000000081525081526020016040805190810160405280600781526020017f4c696e6761726400000000000000000000000000000000000000000000000000815250815250600790600b620002bd929190620002d2565b50348015620002cb57600080fd5b5062000465565b82805482825590600052602060002090810192821562000326579160200282015b82811115620003255782518290805190602001906200031492919062000339565b5091602001919060010190620002f3565b5b509050620003359190620003c0565b5090565b828054600181600116156101000203166002900490600052602060002090601f016020900481019282601f106200037c57805160ff1916838001178555620003ad565b82800160010185558215620003ad579182015b82811115620003ac5782518255916020019190600101906200038f565b5b509050620003bc9190620003f1565b5090565b620003ee91905b80821115620003ea5760008181620003e0919062000419565b50600101620003c7565b5090565b90565b6200041691905b8082111562000412576000816000905550600101620003f8565b5090565b90565b50805460018160011615610100020316600290046000825580601f1062000441575062000462565b601f016020900490600052602060002090810190620004619190620003f1565b5b50565b613ad980620004756000396000f30060806040526004361061016a576000357c0100000000000000000000000000000000000000000000000000000000900463ffffffff16806316a577871461016f578063178dadf51461025e57806319b90d27146102d35780631ca8b6cb146103405780631cadd93e1461036b57806331403667146103825780633f5658f6146103e35780634e62ce501461049f5780635962fbdb146104f657806372a20c951461058e578063742a01f6146105bb5780637d46068b146106855780637de81fca1461071d5780637ff9b5961461074a578063809bee6b1461077557806384095d9e146107b6578063882f1dcf146108175780639ccffcfa146108d3578063b19c655814610900578063b5df681a146109b5578063b79fb17a14610a2a578063d1ad6efe14610a96578063d821f92d14610aff578063d988681714610bbb578063daad2a7214610c12578063e4494a0f14610c3d578063e5661f3014610c68578063f71d96cb14610c95575b600080fd5b34801561017b57600080fd5b506101b0600480360381019080803573ffffffffffffffffffffffffffffffffffffffff169060200190929190505050610d5f565b604051808373ffffffffffffffffffffffffffffffffffffffff1673ffffffffffffffffffffffffffffffffffffffff16815260200180602001828103825283818151815260200191508051906020019080838360005b83811015610222578082015181840152602081019050610207565b50505050905090810190601f16801561024f5780820380516001836020036101000a031916815260200191505b50935050505060405180910390f35b34801561026a57600080fd5b506102d1600480360381019080803590602001908201803590602001908080601f0160208091040260200160405190810160405280939291908181526020018383808284378201915050505050509192919290803515159060200190929190505050610ffa565b005b3480156102df57600080fd5b506102fe600480360381019080803590602001909291905050506110b6565b604051808273ffffffffffffffffffffffffffffffffffffffff1673ffffffffffffffffffffffffffffffffffffffff16815260200191505060405180910390f35b34801561034c57600080fd5b506103556110e9565b6040518082815260200191505060405180910390f35b34801561037757600080fd5b506103806110ef565b005b34801561038e57600080fd5b506103cd600480360381019080803573ffffffffffffffffffffffffffffffffffffffff1690602001909291908035906020019092919050505061121b565b6040518082815260200191505060405180910390f35b3480156103ef57600080fd5b50610424600480360381019080803573ffffffffffffffffffffffffffffffffffffffff16906020019092919050505061124b565b6040518080602001828103825283818151815260200191508051906020019080838360005b83811015610464578082015181840152602081019050610449565b50505050905090810190601f1680156104915780820380516001836020036101000a031916815260200191505b509250505060405180910390f35b3480156104ab57600080fd5b506104e0600480360381019080803573ffffffffffffffffffffffffffffffffffffffff1690602001909291905050506113e4565b6040518082815260200191505060405180910390f35b34801561050257600080fd5b50610537600480360381019080803573ffffffffffffffffffffffffffffffffffffffff1690602001909291905050506113fc565b6040518080602001828103825283818151815260200191508051906020019060200280838360005b8381101561057a57808201518184015260208101905061055f565b505050509050019250505060405180910390f35b34801561059a57600080fd5b506105b960048036038101908080359060200190929190505050611493565b005b3480156105c757600080fd5b506105e660048036038101908080359060200190929190505050611569565b60405180806020018681526020018581526020018415151515815260200183151515158152602001828103825287818151815260200191508051906020019080838360005b8381101561064657808201518184015260208101905061062b565b50505050905090810190601f1680156106735780820380516001836020036101000a031916815260200191505b50965050505050505060405180910390f35b34801561069157600080fd5b506106c6600480360381019080803573ffffffffffffffffffffffffffffffffffffffff1690602001909291905050506116c0565b6040518080602001828103825283818151815260200191508051906020019060200280838360005b838110156107095780820151818401526020810190506106ee565b505050509050019250505060405180910390f35b34801561072957600080fd5b5061074860048036038101908080359060200190929190505050611835565b005b34801561075657600080fd5b5061075f611b8a565b6040518082815260200191505060405180910390f35b34801561078157600080fd5b506107a060048036038101908080359060200190929190505050611b90565b6040518082815260200191505060405180910390f35b3480156107c257600080fd5b50610801600480360381019080803573ffffffffffffffffffffffffffffffffffffffff16906020019092919080359060200190929190505050611bb3565b6040518082815260200191505060405180910390f35b34801561082357600080fd5b50610858600480360381019080803573ffffffffffffffffffffffffffffffffffffffff169060200190929190505050611be3565b6040518080602001828103825283818151815260200191508051906020019080838360005b8381101561089857808201518184015260208101905061087d565b50505050905090810190601f1680156108c55780820380516001836020036101000a031916815260200191505b509250505060405180910390f35b3480156108df57600080fd5b506108fe60048036038101908080359060200190929190505050611c93565b005b34801561090c57600080fd5b5061092b60048036038101908080359060200190929190505050611f74565b604051808473ffffffffffffffffffffffffffffffffffffffff1673ffffffffffffffffffffffffffffffffffffffff1681526020018373ffffffffffffffffffffffffffffffffffffffff1673ffffffffffffffffffffffffffffffffffffffff16815260200182600181111561099f57fe5b60ff168152602001935050505060405180910390f35b3480156109c157600080fd5b50610a28600480360381019080803590602001908201803590602001908080601f0160208091040260200160405190810160405280939291908181526020018383808284378201915050505050509192919290803515159060200190929190505050611ffa565b005b348015610a3657600080fd5b50610a3f612254565b6040518080602001828103825283818151815260200191508051906020019060200280838360005b83811015610a82578082015181840152602081019050610a67565b505050509050019250505060405180910390f35b348015610aa257600080fd5b50610afd600480360381019080803590602001908201803590602001908080601f01602080910402602001604051908101604052809392919081815260200183838082843782019150505050505091929192905050506122ac565b005b348015610b0b57600080fd5b50610b40600480360381019080803573ffffffffffffffffffffffffffffffffffffffff1690602001909291905050506123cf565b6040518080602001828103825283818151815260200191508051906020019080838360005b83811015610b80578082015181840152602081019050610b65565b50505050905090810190601f168015610bad5780820380516001836020036101000a031916815260200191505b509250505060405180910390f35b348015610bc757600080fd5b50610bd06124b0565b604051808273ffffffffffffffffffffffffffffffffffffffff1673ffffffffffffffffffffffffffffffffffffffff16815260200191505060405180910390f35b348015610c1e57600080fd5b50610c27612500565b6040518082815260200191505060405180910390f35b348015610c4957600080fd5b50610c52613190565b6040518082815260200191505060405180910390f35b348015610c7457600080fd5b50610c9360048036038101908080359060200190929190505050613196565b005b348015610ca157600080fd5b50610cc06004803603810190808035906020019092919050505061326d565b60405180806020018681526020018581526020018415151515815260200183151515158152602001828103825287818151815260200191508051906020019080838360005b83811015610d20578082015181840152602081019050610d05565b50505050905090810190601f168015610d4d5780820380516001836020036101000a031916815260200191505b50965050505050505060405180910390f35b600060606000600d6001600d8054905003815481101515610d7c57fe5b9060005260206000209060040201905060018160010160149054906101000a900460ff166001811115610dab57fe5b1415610fb75760006002811115610dbe57fe5b8160020160008673ffffffffffffffffffffffffffffffffffffffff1673ffffffffffffffffffffffffffffffffffffffff16815260200190815260200160002060009054906101000a900460ff166002811115610e1857fe5b1415610e82578060010160009054906101000a900473ffffffffffffffffffffffffffffffffffffffff166040805190810160405280600481526020017f4c4f53450000000000000000000000000000000000000000000000000000000081525092509250610ff4565b60016002811115610e8f57fe5b8160020160008673ffffffffffffffffffffffffffffffffffffffff1673ffffffffffffffffffffffffffffffffffffffff16815260200190815260200160002060009054906101000a900460ff166002811115610ee957fe5b1415610f53578060010160009054906101000a900473ffffffffffffffffffffffffffffffffffffffff166040805190810160405280600381526020017f544945000000000000000000000000000000000000000000000000000000000081525092509250610ff4565b8060010160009054906101000a900473ffffffffffffffffffffffffffffffffffffffff166040805190810160405280600381526020017f57494e000000000000000000000000000000000000000000000000000000000081525092509250610ff4565b60006040805190810160405280600781526020017f57414954494e4700000000000000000000000000000000000000000000000000815250925092505b50915091565b600a600b60003373ffffffffffffffffffffffffffffffffffffffff1673ffffffffffffffffffffffffffffffffffffffff168152602001908152602001600020541015151561104957600080fd5b6110538282611ffa565b600a600b60003373ffffffffffffffffffffffffffffffffffffffff1673ffffffffffffffffffffffffffffffffffffffff16815260200190815260200160002060008282540392505081905550600a6009600082825401925050819055505050565b60036020528060005260406000206000915054906101000a900473ffffffffffffffffffffffffffffffffffffffff1681565b60085481565b600080600460003373ffffffffffffffffffffffffffffffffffffffff1673ffffffffffffffffffffffffffffffffffffffff1681526020019081526020016000208054905014151561114157600080fd5b600090505b600b8110156112185761120b60078281548110151561116157fe5b906000526020600020018054600181600116156101000203166002900480601f0160208091040260200160405190810160405280929190818152602001828054600181600116156101000203166002900480156111ff5780601f106111d4576101008083540402835291602001916111ff565b820191906000526020600020905b8154815290600101906020018083116111e257829003601f168201915b50505050506001611ffa565b8080600101915050611146565b50565b600e6020528160005260406000208181548110151561123657fe5b90600052602060002001600091509150505481565b60606000600d8054905014806112ab575060018081111561126857fe5b600d6001600d805490500381548110151561127f57fe5b906000526020600020906004020160010160149054906101000a900460ff1660018111156112a957fe5b145b156112ed576040805190810160405280600881526020017f4e4f5f4d4154434800000000000000000000000000000000000000000000000081525090506113df565b8173ffffffffffffffffffffffffffffffffffffffff16600d6001600d805490500381548110151561131b57fe5b906000526020600020906004020160000160009054906101000a900473ffffffffffffffffffffffffffffffffffffffff1673ffffffffffffffffffffffffffffffffffffffff1614156113a6576040805190810160405280600a81526020017f4d455f57414954494e470000000000000000000000000000000000000000000081525090506113df565b6040805190810160405280600d81526020017f4f544845525f57414954494e470000000000000000000000000000000000000081525090505b919050565b600b6020528060005260406000206000915090505481565b6060600460008373ffffffffffffffffffffffffffffffffffffffff1673ffffffffffffffffffffffffffffffffffffffff16815260200190815260200160002080548060200260200160405190810160405280929190818152602001828054801561148757602002820191906000526020600020905b815481526020019060010190808311611473575b50505050509050919050565b33816003600082815260200190815260200160002060009054906101000a900473ffffffffffffffffffffffffffffffffffffffff1673ffffffffffffffffffffffffffffffffffffffff168273ffffffffffffffffffffffffffffffffffffffff1614151561150257600080fd5b600b61150d33613364565b108015611520575061151f3384613464565b5b151561152b57600080fd5b600160028481548110151561153c57fe5b906000526020600020906004020160030160006101000a81548160ff021916908315150217905550505050565b6060600080600080611579613907565b60028781548110151561158857fe5b906000526020600020906004020160a06040519081016040529081600082018054600181600116156101000203166002900480601f01602080910402602001604051908101604052809291908181526020018280546001816001161561010002031660029004801561163b5780601f106116105761010080835404028352916020019161163b565b820191906000526020600020905b81548152906001019060200180831161161e57829003601f168201915b5050505050815260200160018201548152602001600282015481526020016003820160009054906101000a900460ff161515151581526020016003820160019054906101000a900460ff161515151581525050905080600001518160200151826040015183606001518460800151849450955095509550955095505091939590929450565b6060806060600080600b6040519080825280602002602001820160405280156116f85781602001602082028038833980820191505090505b509350600460008773ffffffffffffffffffffffffffffffffffffffff1673ffffffffffffffffffffffffffffffffffffffff16815260200190815260200160002080548060200260200160405190810160405280929190818152602001828054801561178457602002820191906000526020600020905b815481526020019060010190808311611770575b5050505050925060009150600090505b825181101561182957600283828151811015156117ad57fe5b906020019060200201518154811015156117c357fe5b906000526020600020906004020160030160009054906101000a900460ff161561181c5782818151811015156117f557fe5b90602001906020020151848381518110151561180d57fe5b90602001906020020181815250505b8080600101915050611794565b83945050505050919050565b60606000803373ffffffffffffffffffffffffffffffffffffffff166003600086815260200190815260200160002060009054906101000a900473ffffffffffffffffffffffffffffffffffffffff1673ffffffffffffffffffffffffffffffffffffffff16141580156118e95750600a600b60003373ffffffffffffffffffffffffffffffffffffffff1673ffffffffffffffffffffffffffffffffffffffff1681526020019081526020016000205410155b15156118f457600080fd5b600a600b60003373ffffffffffffffffffffffffffffffffffffffff1673ffffffffffffffffffffffffffffffffffffffff16815260200190815260200160002060008282540392505081905550600a600b60006003600088815260200190815260200160002060009054906101000a900473ffffffffffffffffffffffffffffffffffffffff1673ffffffffffffffffffffffffffffffffffffffff1673ffffffffffffffffffffffffffffffffffffffff16815260200190815260200160002060008282540192505081905550336003600086815260200190815260200160002060006101000a81548173ffffffffffffffffffffffffffffffffffffffff021916908373ffffffffffffffffffffffffffffffffffffffff160217905550600460003373ffffffffffffffffffffffffffffffffffffffff1673ffffffffffffffffffffffffffffffffffffffff1681526020019081526020016000208490806001815401808255809150509060018203906000526020600020016000909192909190915055506000600285815481101515611a8f57fe5b906000526020600020906004020160030160016101000a81548160ff0219169083151502179055506001600c8054905003604051908082528060200260200182016040528015611aee5781602001602082028038833980820191505090505b50925060009150600090505b600c80549050811015611b6d57600c81815481101515611b1657fe5b906000526020600020015484141515611b6057600c81815481101515611b3857fe5b90600052602060002001548383815181101515611b5157fe5b90602001906020020181815250505b8080600101915050611afa565b82600c9080519060200190611b8392919061393b565b5050505050565b600a5481565b600c81815481101515611b9f57fe5b906000526020600020016000915090505481565b600460205281600052604060002081815481101515611bce57fe5b90600052602060002001600091509150505481565b60056020528060005260406000206000915090508054600181600116156101000203166002900480601f016020809104026020016040519081016040528092919081815260200182805460018160011615610100020316600290048015611c8b5780601f10611c6057610100808354040283529160200191611c8b565b820191906000526020600020905b815481529060010190602001808311611c6e57829003601f168201915b505050505081565b60606000803373ffffffffffffffffffffffffffffffffffffffff166003600086815260200190815260200160002060009054906101000a900473ffffffffffffffffffffffffffffffffffffffff1673ffffffffffffffffffffffffffffffffffffffff16141515611d0557600080fd5b6001600285815481101515611d1657fe5b906000526020600020906004020160030160016101000a81548160ff0219169083151502179055506001600460003373ffffffffffffffffffffffffffffffffffffffff1673ffffffffffffffffffffffffffffffffffffffff1681526020019081526020016000208054905003604051908082528060200260200182016040528015611db25781602001602082028038833980820191505090505b50925060009150600090505b600460003373ffffffffffffffffffffffffffffffffffffffff1673ffffffffffffffffffffffffffffffffffffffff16815260200190815260200160002080549050811015611eee5783600460003373ffffffffffffffffffffffffffffffffffffffff1673ffffffffffffffffffffffffffffffffffffffff16815260200190815260200160002082815481101515611e5557fe5b9060005260206000200154141515611ee157600460003373ffffffffffffffffffffffffffffffffffffffff1673ffffffffffffffffffffffffffffffffffffffff16815260200190815260200160002081815481101515611eb357fe5b90600052602060002001548383806001019450815181101515611ed257fe5b90602001906020020181815250505b8080600101915050611dbe565b82600460003373ffffffffffffffffffffffffffffffffffffffff1673ffffffffffffffffffffffffffffffffffffffff1681526020019081526020016000209080519060200190611f4192919061393b565b50600c84908060018154018082558091505090600182039060005260206000200160009091929091909150555050505050565b600d81815481101515611f8357fe5b90600052602060002090600402016000915090508060000160009054906101000a900473ffffffffffffffffffffffffffffffffffffffff16908060010160009054906101000a900473ffffffffffffffffffffffffffffffffffffffff16908060010160149054906101000a900460ff16905083565b6000806000612008856135c2565b925092506001600260a060405190810160405280888152602001868152602001858152602001871515815260200160001515815250908060018154018082558091505090600182039060005260206000209060040201600090919290919091506000820151816000019080519060200190612084929190613988565b50602082015181600101556040820151816002015560608201518160030160006101000a81548160ff02191690831515021790555060808201518160030160016101000a81548160ff0219169083151502179055505050039050336003600083815260200190815260200160002060006101000a81548173ffffffffffffffffffffffffffffffffffffffff021916908373ffffffffffffffffffffffffffffffffffffffff160217905550600460003373ffffffffffffffffffffffffffffffffffffffff1673ffffffffffffffffffffffffffffffffffffffff1681526020019081526020016000208190806001815401808255809150509060018203906000526020600020016000909192909190915055507fa38c36a5508d65570190157ba88d2c600ec5d9a9cf2b90a1a976d7f64769de5e818685856040518085815260200180602001848152602001838152602001828103825285818151815260200191508051906020019080838360005b838110156122105780820151818401526020810190506121f5565b50505050905090810190601f16801561223d5780820380516001836020036101000a031916815260200191505b509550505050505060405180910390a15050505050565b6060600c8054806020026020016040519081016040528092919081815260200182805480156122a257602002820191906000526020600020905b81548152602001906001019080831161228e575b5050505050905090565b604051806000019050604051809103902060001916600560003373ffffffffffffffffffffffffffffffffffffffff1673ffffffffffffffffffffffffffffffffffffffff168152602001908152602001600020604051808280546001816001161561010002031660029004801561235b5780601f1061233957610100808354040283529182019161235b565b820191906000526020600020905b815481529060010190602001808311612347575b505091505060405180910390206000191614151561237857600080fd5b80600560003373ffffffffffffffffffffffffffffffffffffffff1673ffffffffffffffffffffffffffffffffffffffff16815260200190815260200160002090805190602001906123cb929190613a08565b5050565b6060600560008373ffffffffffffffffffffffffffffffffffffffff1673ffffffffffffffffffffffffffffffffffffffff1681526020019081526020016000208054600181600116156101000203166002900480601f0160208091040260200160405190810160405280929190818152602001828054600181600116156101000203166002900480156124a45780601f10612479576101008083540402835291602001916124a4565b820191906000526020600020905b81548152906001019060200180831161248757829003601f168201915b50505050509050919050565b6000600d6001600d80549050038154811015156124c957fe5b906000526020600020906004020160000160009054906101000a900473ffffffffffffffffffffffffffffffffffffffff16905090565b6000806000806000600a600b60003373ffffffffffffffffffffffffffffffffffffffff1673ffffffffffffffffffffffffffffffffffffffff168152602001908152602001600020541015151561255757600080fd5b6000600d8054905014806125ab57506001600d6001600d805490500381548110151561257f57fe5b906000526020600020906004020160010160149054906101000a900460ff1660018111156125a957fe5b145b1561275e576001600d6060604051908101604052803373ffffffffffffffffffffffffffffffffffffffff168152602001600073ffffffffffffffffffffffffffffffffffffffff1681526020016000600181111561260657fe5b8152509080600181540180825580915050906001820390600052602060002090600402016000909192909190915060008201518160000160006101000a81548173ffffffffffffffffffffffffffffffffffffffff021916908373ffffffffffffffffffffffffffffffffffffffff16021790555060208201518160010160006101000a81548173ffffffffffffffffffffffffffffffffffffffff021916908373ffffffffffffffffffffffffffffffffffffffff16021790555060408201518160010160146101000a81548160ff021916908360018111156126e657fe5b02179055505050039350600e60003373ffffffffffffffffffffffffffffffffffffffff1673ffffffffffffffffffffffffffffffffffffffff168152602001908152602001600020849080600181540180825580915050906001820390600052602060002001600090919290919091505550613189565b3373ffffffffffffffffffffffffffffffffffffffff16600d6001600d805490500381548110151561278c57fe5b906000526020600020906004020160000160009054906101000a900473ffffffffffffffffffffffffffffffffffffffff1673ffffffffffffffffffffffffffffffffffffffff16141515156127e157600080fd5b33600d6001600d80549050038154811015156127f957fe5b906000526020600020906004020160010160006101000a81548173ffffffffffffffffffffffffffffffffffffffff021916908373ffffffffffffffffffffffffffffffffffffffff1602179055506001600d80549050039350600e60003373ffffffffffffffffffffffffffffffffffffffff1673ffffffffffffffffffffffffffffffffffffffff168152602001908152602001600020849080600181540180825580915050906001820390600052602060002001600090919290919091505550600d6001600d80549050038154811015156128d357fe5b906000526020600020906004020160000160009054906101000a900473ffffffffffffffffffffffffffffffffffffffff169250600d6001600d805490500381548110151561291e57fe5b906000526020600020906004020160010160009054906101000a900473ffffffffffffffffffffffffffffffffffffffff16915061295c83836136af565b90506001600d6001600d805490500381548110151561297757fe5b906000526020600020906004020160010160146101000a81548160ff021916908360018111156129a357fe5b02179055506032811315612c71576000600d6001600d80549050038154811015156129ca57fe5b906000526020600020906004020160020160008573ffffffffffffffffffffffffffffffffffffffff1673ffffffffffffffffffffffffffffffffffffffff16815260200190815260200160002060006101000a81548160ff02191690836002811115612a3357fe5b02179055506002600d6001600d8054905003815481101515612a5157fe5b906000526020600020906004020160030160008473ffffffffffffffffffffffffffffffffffffffff1673ffffffffffffffffffffffffffffffffffffffff16815260200190815260200160002060006101000a81548160ff02191690836002811115612aba57fe5b0217905550600a600b60008573ffffffffffffffffffffffffffffffffffffffff1673ffffffffffffffffffffffffffffffffffffffff16815260200190815260200160002060008282540192505081905550600a600b60008473ffffffffffffffffffffffffffffffffffffffff1673ffffffffffffffffffffffffffffffffffffffff168152602001908152602001600020600082825403925050819055507f535313011bcd921f7a5c13b4f26a47be0bb132fd2565b108a96821fd6a5fef4d838386604051808473ffffffffffffffffffffffffffffffffffffffff1673ffffffffffffffffffffffffffffffffffffffff1681526020018373ffffffffffffffffffffffffffffffffffffffff1673ffffffffffffffffffffffffffffffffffffffff1681526020018281526020018060200180602001838103835260038152602001807f57494e0000000000000000000000000000000000000000000000000000000000815250602001838103825260048152602001807f4c4f5345000000000000000000000000000000000000000000000000000000008152506020019550505050505060405180910390a1613188565b7fffffffffffffffffffffffffffffffffffffffffffffffffffffffffffffffce8112158015612ca2575060328113155b15612ecb576001600d6001600d8054905003815481101515612cc057fe5b906000526020600020906004020160020160008573ffffffffffffffffffffffffffffffffffffffff1673ffffffffffffffffffffffffffffffffffffffff16815260200190815260200160002060006101000a81548160ff02191690836002811115612d2957fe5b02179055506001600d6001600d8054905003815481101515612d4757fe5b906000526020600020906004020160030160008473ffffffffffffffffffffffffffffffffffffffff1673ffffffffffffffffffffffffffffffffffffffff16815260200190815260200160002060006101000a81548160ff02191690836002811115612db057fe5b02179055507f535313011bcd921f7a5c13b4f26a47be0bb132fd2565b108a96821fd6a5fef4d838386604051808473ffffffffffffffffffffffffffffffffffffffff1673ffffffffffffffffffffffffffffffffffffffff1681526020018373ffffffffffffffffffffffffffffffffffffffff1673ffffffffffffffffffffffffffffffffffffffff1681526020018281526020018060200180602001838103835260038152602001807f57494e0000000000000000000000000000000000000000000000000000000000815250602001838103825260048152602001807f4c4f5345000000000000000000000000000000000000000000000000000000008152506020019550505050505060405180910390a1613187565b6002600d6001600d8054905003815481101515612ee457fe5b906000526020600020906004020160020160008573ffffffffffffffffffffffffffffffffffffffff1673ffffffffffffffffffffffffffffffffffffffff16815260200190815260200160002060006101000a81548160ff02191690836002811115612f4d57fe5b02179055506000600d6001600d8054905003815481101515612f6b57fe5b906000526020600020906004020160030160008473ffffffffffffffffffffffffffffffffffffffff1673ffffffffffffffffffffffffffffffffffffffff16815260200190815260200160002060006101000a81548160ff02191690836002811115612fd457fe5b0217905550600a600b60008573ffffffffffffffffffffffffffffffffffffffff1673ffffffffffffffffffffffffffffffffffffffff16815260200190815260200160002060008282540392505081905550600a600b60008473ffffffffffffffffffffffffffffffffffffffff1673ffffffffffffffffffffffffffffffffffffffff168152602001908152602001600020600082825401925050819055507f535313011bcd921f7a5c13b4f26a47be0bb132fd2565b108a96821fd6a5fef4d838386604051808473ffffffffffffffffffffffffffffffffffffffff1673ffffffffffffffffffffffffffffffffffffffff1681526020018373ffffffffffffffffffffffffffffffffffffffff1673ffffffffffffffffffffffffffffffffffffffff1681526020018281526020018060200180602001838103835260038152602001807f57494e0000000000000000000000000000000000000000000000000000000000815250602001838103825260048152602001807f4c4f5345000000000000000000000000000000000000000000000000000000008152506020019550505050505060405180910390a15b5b5b5050505090565b60095481565b33816003600082815260200190815260200160002060009054906101000a900473ffffffffffffffffffffffffffffffffffffffff1673ffffffffffffffffffffffffffffffffffffffff168273ffffffffffffffffffffffffffffffffffffffff1614151561320557600080fd5b600061321033613364565b11801561322457506132223384613464565b155b151561322f57600080fd5b600060028481548110151561324057fe5b906000526020600020906004020160030160006101000a81548160ff021916908315150217905550505050565b60028181548110151561327c57fe5b9060005260206000209060040201600091509050806000018054600181600116156101000203166002900480601f0160208091040260200160405190810160405280929190818152602001828054600181600116156101000203166002900480156133285780601f106132fd57610100808354040283529160200191613328565b820191906000526020600020905b81548152906001019060200180831161330b57829003601f168201915b5050505050908060010154908060020154908060030160009054906101000a900460ff16908060030160019054906101000a900460ff16905085565b6000806000809150600090505b600460008573ffffffffffffffffffffffffffffffffffffffff1673ffffffffffffffffffffffffffffffffffffffff1681526020019081526020016000208054905081101561345a576002600460008673ffffffffffffffffffffffffffffffffffffffff1673ffffffffffffffffffffffffffffffffffffffff1681526020019081526020016000208281548110151561340957fe5b906000526020600020015481548110151561342057fe5b906000526020600020906004020160030160009054906101000a900460ff161561344d5781806001019250505b8080600101915050613371565b8192505050919050565b600080600090505b600460008573ffffffffffffffffffffffffffffffffffffffff1673ffffffffffffffffffffffffffffffffffffffff168152602001908152602001600020805490508110156135b65782600460008673ffffffffffffffffffffffffffffffffffffffff1673ffffffffffffffffffffffffffffffffffffffff1681526020019081526020016000208281548110151561350357fe5b906000526020600020015414801561359b57506002600460008673ffffffffffffffffffffffffffffffffffffffff1673ffffffffffffffffffffffffffffffffffffffff1681526020019081526020016000208281548110151561356457fe5b906000526020600020015481548110151561357b57fe5b906000526020600020906004020160030160009054906101000a900460ff165b156135a957600091506135bb565b808060010191505061346c565b600191505b5092915050565b600080600080844260066000815480929190600101919050556040518084805190602001908083835b60208310151561361057805182526020820191506020810190506020830392506135eb565b6001836020036101000a038019825116818451168082178552505050505050905001838152602001828152602001935050505060405180910390206001900491506001548281151561365e57fe5b0691506064808381151561366e57fe5b0481151561367857fe5b06905060148111151561369057603c810190506136a2565b6032811115156136a157601e810190505b5b8181935093505050915091565b60008060006136bd856136e2565b91506136c8846136e2565b90506136d4858561382a565b818303019250505092915050565b60006060600080600460008673ffffffffffffffffffffffffffffffffffffffff1673ffffffffffffffffffffffffffffffffffffffff16815260200190815260200160002080548060200260200160405190810160405280929190818152602001828054801561377257602002820191906000526020600020905b81548152602001906001019080831161375e575b5050505050925060009150600090505b825181101561381f576002838281518110151561379b57fe5b906020019060200201518154811015156137b157fe5b906000526020600020906004020160030160009054906101000a900460ff161561381257600283828151811015156137e557fe5b906020019060200201518154811015156137fb57fe5b906000526020600020906004020160020154820191505b8080600101915050613782565b819350505050919050565b60008060006101908585426006600081548092919060010191905055604051808573ffffffffffffffffffffffffffffffffffffffff1673ffffffffffffffffffffffffffffffffffffffff166c010000000000000000000000000281526014018473ffffffffffffffffffffffffffffffffffffffff1673ffffffffffffffffffffffffffffffffffffffff166c010000000000000000000000000281526014018381526020018281526020019450505050506040518091039020600190048115156138f357fe5b06915060c882039050809250505092915050565b60a0604051908101604052806060815260200160008152602001600081526020016000151581526020016000151581525090565b828054828255906000526020600020908101928215613977579160200282015b8281111561397657825182559160200191906001019061395b565b5b5090506139849190613a88565b5090565b828054600181600116156101000203166002900490600052602060002090601f016020900481019282601f106139c957805160ff19168380011785556139f7565b828001600101855582156139f7579182015b828111156139f65782518255916020019190600101906139db565b5b509050613a049190613a88565b5090565b828054600181600116156101000203166002900490600052602060002090601f016020900481019282601f10613a4957805160ff1916838001178555613a77565b82800160010185558215613a77579182015b82811115613a76578251825591602001919060010190613a5b565b5b509050613a849190613a88565b5090565b613aaa91905b80821115613aa6576000816000905550600101613a8e565b5090565b905600a165627a7a723058207b761360c56c115c5ac2691e8968a6b6bce23dce6b4c67f39d51d81f50c0b21d0029",
  "source": "pragma solidity ^0.4.23;\n\nimport \"./TeamSetting.sol\";\n\ncontract Match is TeamSetting {\n\n    event NewMatch(address player1, address player2, uint matchId, string player1Result, string player2Result);\n\n    enum MatchStatus {\n        WAITING, FINISHED\n    }\n\n    enum MatchResult {\n        WIN, TIE, LOSE\n    }\n\n    struct MatchInfo {\n        address player1;\n        address player2;\n        MatchStatus status;\n        mapping (address => MatchResult) player1Result;\n        mapping (address => MatchResult) player2Result;\n    }\n\n    MatchInfo[] public matchArray;\n\n    mapping (address => uint[]) public ownerMatches;\n\n    function attendMatch() public returns (uint) {\n        require(ownerOwnedTokens[msg.sender] >= 10);\n        if (matchArray.length == 0 || uint(matchArray[matchArray.length - 1].status) == 1) {\n            uint matchId = matchArray.push(MatchInfo(msg.sender, 0, MatchStatus.WAITING)) - 1;\n            ownerMatches[msg.sender].push(matchId);\n        } else {\n            require(matchArray[matchArray.length - 1].player1 != msg.sender);\n            matchArray[matchArray.length - 1].player2 = msg.sender;\n            matchId = matchArray.length - 1;\n            ownerMatches[msg.sender].push(matchId);\n\n            address curPlayer1 = matchArray[matchArray.length - 1].player1;\n            address curPlayer2 = matchArray[matchArray.length - 1].player2;\n            int matchResult = teamCompete(curPlayer1, curPlayer2);\n            matchArray[matchArray.length - 1].status = MatchStatus.FINISHED;\n\n            if (matchResult > 50) {\n                matchArray[matchArray.length - 1].player1Result[curPlayer1] = MatchResult.WIN;\n                matchArray[matchArray.length - 1].player2Result[curPlayer2] = MatchResult.LOSE;\n                ownerOwnedTokens[curPlayer1] += 10;\n                ownerOwnedTokens[curPlayer2] -= 10;\n                emit NewMatch(curPlayer1, curPlayer2, matchId, \"WIN\", \"LOSE\");\n            } else if (matchResult >= -50 && matchResult <= 50) {\n                matchArray[matchArray.length - 1].player1Result[curPlayer1] = MatchResult.TIE;\n                matchArray[matchArray.length - 1].player2Result[curPlayer2] = MatchResult.TIE;\n                emit NewMatch(curPlayer1, curPlayer2, matchId, \"WIN\", \"LOSE\");\n            } else {\n                matchArray[matchArray.length - 1].player1Result[curPlayer1] = MatchResult.LOSE;\n                matchArray[matchArray.length - 1].player2Result[curPlayer2] = MatchResult.WIN;\n                ownerOwnedTokens[curPlayer1] -= 10;\n                ownerOwnedTokens[curPlayer2] += 10;\n                emit NewMatch(curPlayer1, curPlayer2, matchId, \"WIN\", \"LOSE\");\n            }\n        }\n    }\n\n    function teamCompete(address _player1, address _player2) private returns (int) {\n        int team1Power = getTeamStarterPower(_player1);\n        int team2Power = getTeamStarterPower(_player2);\n\n        return team1Power - team2Power + getFortune(_player1, _player2);\n    }\n\n    function getTeamStarterPower(address _owner) view private returns (int) {\n        uint[] memory teamStarters = ownerOwnedPlayers[_owner];\n        int teamPower = 0;\n\n        for (uint i = 0 ; i < teamStarters.length; i++) {\n            if (players[teamStarters[i]].isStarter) {\n                teamPower += int(players[teamStarters[i]].power);\n            }\n        }\n\n        return teamPower;\n    }\n\n    function getFortune(address _player1, address _player2) private returns (int) {\n        uint rand = uint(keccak256(_player1, _player2, now, nonce++)) % 400;\n        int fortune = int(rand - 200);\n        return fortune;\n    }\n\n    function getOtherWaitingPlayerAddress() view public returns (address) {\n        return matchArray[matchArray.length - 1].player1;\n    }\n\n    function getTeamStarters(address _owner) view public returns (uint[]) {\n        uint[] memory teamStarters = new uint[](11);\n        uint[] memory ownerTeamPlayers = ownerOwnedPlayers[_owner];\n        uint index = 0;\n        for (uint i = 0; i < ownerTeamPlayers.length; i++) {\n            if (players[ownerTeamPlayers[i]].isStarter) {\n                teamStarters[index] = ownerTeamPlayers[i];\n            }\n        }\n\n        return teamStarters;\n    }\n\n    function queryCurrentMatch(address _owner) view public returns (string) {\n        if (matchArray.length == 0 || matchArray[matchArray.length - 1].status == MatchStatus.FINISHED) {\n            return \"NO_MATCH\";\n        } else if (matchArray[matchArray.length - 1].player1 == _owner) {\n            return \"ME_WAITING\";\n        } else {\n            return \"OTHER_WAITING\";\n        }\n    }\n\n    function queryMyLatestMatchResult(address _owner) view public returns (address, string) {\n        MatchInfo storage latestMatch = matchArray[matchArray.length - 1];\n        if (uint(latestMatch.status) == 1) {\n            if (latestMatch.player1Result[_owner] == MatchResult.WIN) {\n                return (latestMatch.player2, \"LOSE\");\n            } else if (latestMatch.player1Result[_owner] == MatchResult.TIE) {\n                return (latestMatch.player2, \"TIE\");\n            } else {\n                return (latestMatch.player2, \"WIN\");\n            }\n        } else {\n            return (address(0), \"WAITING\");\n        }\n    }\n\n}",
  "sourcePath": "/Users/James/Project/worldcuptest/contracts/Match.sol",
  "compiler": {
    "name": "solc",
    "version": "0.4.24+commit.e67f0147.Emscripten.clang"
  },
  "schemaVersion": "2.0.1",
  "updatedAt": "2018-07-15T05:08:16.937Z"
}