{
  "contractName": "PlayerFactory",
  "abi": [
    {
      "constant": true,
      "inputs": [
        {
          "name": "",
          "type": "uint256"
        }
      ],
      "name": "playerToOwner",
      "outputs": [
        {
          "name": "",
          "type": "address"
        }
      ],
      "payable": false,
      "stateMutability": "view",
      "type": "function"
    },
    {
      "constant": true,
      "inputs": [],
      "name": "totalTokenSupply",
      "outputs": [
        {
          "name": "",
          "type": "uint256"
        }
      ],
      "payable": false,
      "stateMutability": "view",
      "type": "function"
    },
    {
      "constant": true,
      "inputs": [
        {
          "name": "",
          "type": "address"
        }
      ],
      "name": "ownerOwnedTokens",
      "outputs": [
        {
          "name": "",
          "type": "uint256"
        }
      ],
      "payable": false,
      "stateMutability": "view",
      "type": "function"
    },
    {
      "constant": true,
      "inputs": [],
      "name": "tokenPrice",
      "outputs": [
        {
          "name": "",
          "type": "uint256"
        }
      ],
      "payable": false,
      "stateMutability": "view",
      "type": "function"
    },
    {
      "constant": true,
      "inputs": [
        {
          "name": "",
          "type": "address"
        },
        {
          "name": "",
          "type": "uint256"
        }
      ],
      "name": "ownerOwnedPlayers",
      "outputs": [
        {
          "name": "",
          "type": "uint256"
        }
      ],
      "payable": false,
      "stateMutability": "view",
      "type": "function"
    },
    {
      "constant": true,
      "inputs": [
        {
          "name": "",
          "type": "address"
        }
      ],
      "name": "ownerCountry",
      "outputs": [
        {
          "name": "",
          "type": "string"
        }
      ],
      "payable": false,
      "stateMutability": "view",
      "type": "function"
    },
    {
      "constant": true,
      "inputs": [],
      "name": "balanceTokens",
      "outputs": [
        {
          "name": "",
          "type": "uint256"
        }
      ],
      "payable": false,
      "stateMutability": "view",
      "type": "function"
    },
    {
      "constant": true,
      "inputs": [
        {
          "name": "",
          "type": "uint256"
        }
      ],
      "name": "players",
      "outputs": [
        {
          "name": "name",
          "type": "string"
        },
        {
          "name": "dna",
          "type": "uint256"
        },
        {
          "name": "power",
          "type": "uint256"
        },
        {
          "name": "isStarter",
          "type": "bool"
        },
        {
          "name": "onSale",
          "type": "bool"
        }
      ],
      "payable": false,
      "stateMutability": "view",
      "type": "function"
    },
    {
      "anonymous": false,
      "inputs": [
        {
          "indexed": false,
          "name": "playerId",
          "type": "uint256"
        },
        {
          "indexed": false,
          "name": "name",
          "type": "string"
        },
        {
          "indexed": false,
          "name": "dna",
          "type": "uint256"
        },
        {
          "indexed": false,
          "name": "power",
          "type": "uint256"
        }
      ],
      "name": "NewPlayer",
      "type": "event"
    },
    {
      "constant": false,
      "inputs": [
        {
          "name": "_name",
          "type": "string"
        },
        {
          "name": "_isStarter",
          "type": "bool"
        }
      ],
      "name": "createRandomPlayer",
      "outputs": [],
      "payable": false,
      "stateMutability": "nonpayable",
      "type": "function"
    },
    {
      "constant": false,
      "inputs": [
        {
          "name": "_name",
          "type": "string"
        },
        {
          "name": "_isStarter",
          "type": "bool"
        }
      ],
      "name": "createPlayerByToken",
      "outputs": [],
      "payable": false,
      "stateMutability": "nonpayable",
      "type": "function"
    },
    {
      "constant": false,
      "inputs": [],
      "name": "initPlayers",
      "outputs": [],
      "payable": false,
      "stateMutability": "nonpayable",
      "type": "function"
    },
    {
      "constant": false,
      "inputs": [
        {
          "name": "_country",
          "type": "string"
        }
      ],
      "name": "setCountry",
      "outputs": [],
      "payable": false,
      "stateMutability": "nonpayable",
      "type": "function"
    },
    {
      "constant": true,
      "inputs": [
        {
          "name": "_owner",
          "type": "address"
        }
      ],
      "name": "getCountry",
      "outputs": [
        {
          "name": "",
          "type": "string"
        }
      ],
      "payable": false,
      "stateMutability": "view",
      "type": "function"
    },
    {
      "constant": true,
      "inputs": [
        {
          "name": "_owner",
          "type": "address"
        }
      ],
      "name": "getOwnerOwnedPlayers",
      "outputs": [
        {
          "name": "",
          "type": "uint256[]"
        }
      ],
      "payable": false,
      "stateMutability": "view",
      "type": "function"
    },
    {
      "constant": true,
      "inputs": [
        {
          "name": "_playerId",
          "type": "uint256"
        }
      ],
      "name": "getPlayerByPlayerId",
      "outputs": [
        {
          "name": "",
          "type": "string"
        },
        {
          "name": "",
          "type": "uint256"
        },
        {
          "name": "",
          "type": "uint256"
        },
        {
          "name": "",
          "type": "bool"
        },
        {
          "name": "",
          "type": "bool"
        }
      ],
      "payable": false,
      "stateMutability": "view",
      "type": "function"
    }
  ],
  "bytecode": "0x60806040526008600055600054600a0a6001556000600655610160604051908101604052806040805190810160405280600881526020017f5069636b666f726400000000000000000000000000000000000000000000000081525081526020016040805190810160405280600481526020017f4b616e650000000000000000000000000000000000000000000000000000000081525081526020016040805190810160405280600881526020017f52617368666f726400000000000000000000000000000000000000000000000081525081526020016040805190810160405280600781526020017f57656c6265636b0000000000000000000000000000000000000000000000000081525081526020016040805190810160405280600581526020017f436865656b00000000000000000000000000000000000000000000000000000081525081526020016040805190810160405280600581526020017f4a6f6e657300000000000000000000000000000000000000000000000000000081525081526020016040805190810160405280600581526020017f596f756e6700000000000000000000000000000000000000000000000000000081525081526020016040805190810160405280600681526020017f436168696c6c000000000000000000000000000000000000000000000000000081525081526020016040805190810160405280600481526020017f526f73650000000000000000000000000000000000000000000000000000000081525081526020016040805190810160405280600881526020017f537465726c696e6700000000000000000000000000000000000000000000000081525081526020016040805190810160405280600781526020017f4c696e6761726400000000000000000000000000000000000000000000000000815250815250600790600b620002bd929190620002d2565b50348015620002cb57600080fd5b5062000465565b82805482825590600052602060002090810192821562000326579160200282015b82811115620003255782518290805190602001906200031492919062000339565b5091602001919060010190620002f3565b5b509050620003359190620003c0565b5090565b828054600181600116156101000203166002900490600052602060002090601f016020900481019282601f106200037c57805160ff1916838001178555620003ad565b82800160010185558215620003ad579182015b82811115620003ac5782518255916020019190600101906200038f565b5b509050620003bc9190620003f1565b5090565b620003ee91905b80821115620003ea5760008181620003e0919062000419565b50600101620003c7565b5090565b90565b6200041691905b8082111562000412576000816000905550600101620003f8565b5090565b90565b50805460018160011615610100020316600290046000825580601f1062000441575062000462565b601f016020900490600052602060002090810190620004619190620003f1565b5b50565b61146e80620004756000396000f3006080604052600436106100db576000357c0100000000000000000000000000000000000000000000000000000000900463ffffffff168063178dadf5146100e057806319b90d27146101555780631ca8b6cb146101c25780631cadd93e146101ed5780634e62ce50146102045780635962fbdb1461025b578063742a01f6146102f35780637ff9b596146103bd57806384095d9e146103e8578063882f1dcf14610449578063b5df681a14610505578063d1ad6efe1461057a578063d821f92d146105e3578063e4494a0f1461069f578063f71d96cb146106ca575b600080fd5b3480156100ec57600080fd5b50610153600480360381019080803590602001908201803590602001908080601f0160208091040260200160405190810160405280939291908181526020018383808284378201915050505050509192919290803515159060200190929190505050610794565b005b34801561016157600080fd5b5061018060048036038101908080359060200190929190505050610850565b604051808273ffffffffffffffffffffffffffffffffffffffff1673ffffffffffffffffffffffffffffffffffffffff16815260200191505060405180910390f35b3480156101ce57600080fd5b506101d7610883565b6040518082815260200191505060405180910390f35b3480156101f957600080fd5b50610202610889565b005b34801561021057600080fd5b50610245600480360381019080803573ffffffffffffffffffffffffffffffffffffffff1690602001909291905050506109b5565b6040518082815260200191505060405180910390f35b34801561026757600080fd5b5061029c600480360381019080803573ffffffffffffffffffffffffffffffffffffffff1690602001909291905050506109cd565b6040518080602001828103825283818151815260200191508051906020019060200280838360005b838110156102df5780820151818401526020810190506102c4565b505050509050019250505060405180910390f35b3480156102ff57600080fd5b5061031e60048036038101908080359060200190929190505050610a64565b60405180806020018681526020018581526020018415151515815260200183151515158152602001828103825287818151815260200191508051906020019080838360005b8381101561037e578082015181840152602081019050610363565b50505050905090810190601f1680156103ab5780820380516001836020036101000a031916815260200191505b50965050505050505060405180910390f35b3480156103c957600080fd5b506103d2610bbb565b6040518082815260200191505060405180910390f35b3480156103f457600080fd5b50610433600480360381019080803573ffffffffffffffffffffffffffffffffffffffff16906020019092919080359060200190929190505050610bc1565b6040518082815260200191505060405180910390f35b34801561045557600080fd5b5061048a600480360381019080803573ffffffffffffffffffffffffffffffffffffffff169060200190929190505050610bf1565b6040518080602001828103825283818151815260200191508051906020019080838360005b838110156104ca5780820151818401526020810190506104af565b50505050905090810190601f1680156104f75780820380516001836020036101000a031916815260200191505b509250505060405180910390f35b34801561051157600080fd5b50610578600480360381019080803590602001908201803590602001908080601f0160208091040260200160405190810160405280939291908181526020018383808284378201915050505050509192919290803515159060200190929190505050610ca1565b005b34801561058657600080fd5b506105e1600480360381019080803590602001908201803590602001908080601f0160208091040260200160405190810160405280939291908181526020018383808284378201915050505050509192919290505050610efb565b005b3480156105ef57600080fd5b50610624600480360381019080803573ffffffffffffffffffffffffffffffffffffffff16906020019092919050505061101e565b6040518080602001828103825283818151815260200191508051906020019080838360005b83811015610664578082015181840152602081019050610649565b50505050905090810190601f1680156106915780820380516001836020036101000a031916815260200191505b509250505060405180910390f35b3480156106ab57600080fd5b506106b46110ff565b6040518082815260200191505060405180910390f35b3480156106d657600080fd5b506106f560048036038101908080359060200190929190505050611105565b60405180806020018681526020018581526020018415151515815260200183151515158152602001828103825287818151815260200191508051906020019080838360005b8381101561075557808201518184015260208101905061073a565b50505050905090810190601f1680156107825780820380516001836020036101000a031916815260200191505b50965050505050505060405180910390f35b600a600b60003373ffffffffffffffffffffffffffffffffffffffff1673ffffffffffffffffffffffffffffffffffffffff16815260200190815260200160002054101515156107e357600080fd5b6107ed8282610ca1565b600a600b60003373ffffffffffffffffffffffffffffffffffffffff1673ffffffffffffffffffffffffffffffffffffffff16815260200190815260200160002060008282540392505081905550600a6009600082825401925050819055505050565b60036020528060005260406000206000915054906101000a900473ffffffffffffffffffffffffffffffffffffffff1681565b60085481565b600080600460003373ffffffffffffffffffffffffffffffffffffffff1673ffffffffffffffffffffffffffffffffffffffff168152602001908152602001600020805490501415156108db57600080fd5b600090505b600b8110156109b2576109a56007828154811015156108fb57fe5b906000526020600020018054600181600116156101000203166002900480601f0160208091040260200160405190810160405280929190818152602001828054600181600116156101000203166002900480156109995780601f1061096e57610100808354040283529160200191610999565b820191906000526020600020905b81548152906001019060200180831161097c57829003601f168201915b50505050506001610ca1565b80806001019150506108e0565b50565b600b6020528060005260406000206000915090505481565b6060600460008373ffffffffffffffffffffffffffffffffffffffff1673ffffffffffffffffffffffffffffffffffffffff168152602001908152602001600020805480602002602001604051908101604052809291908181526020018280548015610a5857602002820191906000526020600020905b815481526020019060010190808311610a44575b50505050509050919050565b6060600080600080610a746112e9565b600287815481101515610a8357fe5b906000526020600020906004020160a06040519081016040529081600082018054600181600116156101000203166002900480601f016020809104026020016040519081016040528092919081815260200182805460018160011615610100020316600290048015610b365780601f10610b0b57610100808354040283529160200191610b36565b820191906000526020600020905b815481529060010190602001808311610b1957829003601f168201915b5050505050815260200160018201548152602001600282015481526020016003820160009054906101000a900460ff161515151581526020016003820160019054906101000a900460ff161515151581525050905080600001518160200151826040015183606001518460800151849450955095509550955095505091939590929450565b600a5481565b600460205281600052604060002081815481101515610bdc57fe5b90600052602060002001600091509150505481565b60056020528060005260406000206000915090508054600181600116156101000203166002900480601f016020809104026020016040519081016040528092919081815260200182805460018160011615610100020316600290048015610c995780601f10610c6e57610100808354040283529160200191610c99565b820191906000526020600020905b815481529060010190602001808311610c7c57829003601f168201915b505050505081565b6000806000610caf856111fc565b925092506001600260a060405190810160405280888152602001868152602001858152602001871515815260200160001515815250908060018154018082558091505090600182039060005260206000209060040201600090919290919091506000820151816000019080519060200190610d2b92919061131d565b50602082015181600101556040820151816002015560608201518160030160006101000a81548160ff02191690831515021790555060808201518160030160016101000a81548160ff0219169083151502179055505050039050336003600083815260200190815260200160002060006101000a81548173ffffffffffffffffffffffffffffffffffffffff021916908373ffffffffffffffffffffffffffffffffffffffff160217905550600460003373ffffffffffffffffffffffffffffffffffffffff1673ffffffffffffffffffffffffffffffffffffffff1681526020019081526020016000208190806001815401808255809150509060018203906000526020600020016000909192909190915055507fa38c36a5508d65570190157ba88d2c600ec5d9a9cf2b90a1a976d7f64769de5e818685856040518085815260200180602001848152602001838152602001828103825285818151815260200191508051906020019080838360005b83811015610eb7578082015181840152602081019050610e9c565b50505050905090810190601f168015610ee45780820380516001836020036101000a031916815260200191505b509550505050505060405180910390a15050505050565b604051806000019050604051809103902060001916600560003373ffffffffffffffffffffffffffffffffffffffff1673ffffffffffffffffffffffffffffffffffffffff1681526020019081526020016000206040518082805460018160011615610100020316600290048015610faa5780601f10610f88576101008083540402835291820191610faa565b820191906000526020600020905b815481529060010190602001808311610f96575b5050915050604051809103902060001916141515610fc757600080fd5b80600560003373ffffffffffffffffffffffffffffffffffffffff1673ffffffffffffffffffffffffffffffffffffffff168152602001908152602001600020908051906020019061101a92919061139d565b5050565b6060600560008373ffffffffffffffffffffffffffffffffffffffff1673ffffffffffffffffffffffffffffffffffffffff1681526020019081526020016000208054600181600116156101000203166002900480601f0160208091040260200160405190810160405280929190818152602001828054600181600116156101000203166002900480156110f35780601f106110c8576101008083540402835291602001916110f3565b820191906000526020600020905b8154815290600101906020018083116110d657829003601f168201915b50505050509050919050565b60095481565b60028181548110151561111457fe5b9060005260206000209060040201600091509050806000018054600181600116156101000203166002900480601f0160208091040260200160405190810160405280929190818152602001828054600181600116156101000203166002900480156111c05780601f10611195576101008083540402835291602001916111c0565b820191906000526020600020905b8154815290600101906020018083116111a357829003601f168201915b5050505050908060010154908060020154908060030160009054906101000a900460ff16908060030160019054906101000a900460ff16905085565b600080600080844260066000815480929190600101919050556040518084805190602001908083835b60208310151561124a5780518252602082019150602081019050602083039250611225565b6001836020036101000a038019825116818451168082178552505050505050905001838152602001828152602001935050505060405180910390206001900491506001548281151561129857fe5b069150606480838115156112a857fe5b048115156112b257fe5b0690506014811115156112ca57603c810190506112dc565b6032811115156112db57601e810190505b5b8181935093505050915091565b60a0604051908101604052806060815260200160008152602001600081526020016000151581526020016000151581525090565b828054600181600116156101000203166002900490600052602060002090601f016020900481019282601f1061135e57805160ff191683800117855561138c565b8280016001018555821561138c579182015b8281111561138b578251825591602001919060010190611370565b5b509050611399919061141d565b5090565b828054600181600116156101000203166002900490600052602060002090601f016020900481019282601f106113de57805160ff191683800117855561140c565b8280016001018555821561140c579182015b8281111561140b5782518255916020019190600101906113f0565b5b509050611419919061141d565b5090565b61143f91905b8082111561143b576000816000905550600101611423565b5090565b905600a165627a7a7230582021e21e91b2b9b1f2b34cb69a78cbc66c861ffefd04b9d0c2aff522d44194eb830029",
  "source": "pragma solidity ^0.4.23;\n\ncontract PlayerFactory {\n\n    event NewPlayer(uint playerId, string name, uint dna, uint power);\n\n    uint dnaDigits = 8;\n    uint dnaModulus = 10 ** dnaDigits;\n\n    struct Player {\n        string name;\n        uint dna;\n        uint power;\n        bool isStarter;\n        bool onSale;\n    }\n\n    Player[] public players;\n\n    mapping (uint => address) public playerToOwner;\n    mapping (address => uint[]) public ownerOwnedPlayers;\n    mapping (address => string) public ownerCountry;\n\n    uint nonce = 0;\n\n    string[] initialPlayerNames = [\"Pickford\", \"Kane\", \"Rashford\", \"Welbeck\", \"Cheek\", \"Jones\", \"Young\", \"Cahill\", \"Rose\", \"Sterling\", \"Lingard\"];\n\n    uint public totalTokenSupply;\n    uint public balanceTokens;\n    uint public tokenPrice;\n\n    mapping (address => uint) public ownerOwnedTokens;\n\n    function _generateRandomDnaAndPower(string _name) private returns (uint, uint) {\n        uint rand = uint(keccak256(_name, now, nonce++));\n        rand = rand % dnaModulus;\n        uint power = (rand / 100) % 100;\n        if (power <= 20) {\n            power += 60;\n        } else if (power <= 50) {\n            power += 30;\n        }\n\n        return (rand, power);\n    }\n\n    function createRandomPlayer(string _name, bool _isStarter) public {\n        (uint dna, uint power) = _generateRandomDnaAndPower(_name);\n        uint id = players.push(Player(_name, dna, power, _isStarter, false)) - 1;\n        playerToOwner[id] = msg.sender;\n        ownerOwnedPlayers[msg.sender].push(id);\n\n        emit NewPlayer(id, _name, dna, power);\n    }\n\n    function createPlayerByToken(string _name, bool _isStarter) public {\n        require(ownerOwnedTokens[msg.sender] >= 10);\n        createRandomPlayer(_name, _isStarter);\n        ownerOwnedTokens[msg.sender] -= 10;\n        balanceTokens += 10;\n    }\n\n    function initPlayers() public {\n        require(ownerOwnedPlayers[msg.sender].length == 0);\n        for (uint i = 0; i < 11; i++) {\n            createRandomPlayer(initialPlayerNames[i], true);\n        }\n    }\n\n    function setCountry(string _country) public {\n        require(keccak256(ownerCountry[msg.sender]) == keccak256(\"\"));\n        ownerCountry[msg.sender] = _country;\n    }\n\n    function getCountry(address _owner) view public returns (string) {\n        return ownerCountry[_owner];\n    }\n\n    function getOwnerOwnedPlayers(address _owner) view public returns (uint[]) {\n        return ownerOwnedPlayers[_owner];\n    }\n\n    function getPlayerByPlayerId(uint _playerId) view public returns (string, uint, uint, bool, bool) {\n        Player memory player = players[_playerId];\n        return (player.name, player.dna, player.power, player.isStarter, player.onSale);\n    }\n}",
  "sourcePath": "/Users/James/Project/worldcuptest/contracts/PlayerFactory.sol",
  "compiler": {
    "name": "solc",
    "version": "0.4.24+commit.e67f0147.Emscripten.clang"
  },
  "schemaVersion": "2.0.1",
  "updatedAt": "2018-07-15T05:08:16.923Z"
}