{
  "contractName": "TeamSetting",
  "abi": [
    {
      "constant": false,
      "inputs": [
        {
          "name": "_name",
          "type": "string"
        },
        {
          "name": "_isStarter",
          "type": "bool"
        }
      ],
      "name": "createPlayerByToken",
      "outputs": [],
      "payable": false,
      "stateMutability": "nonpayable",
      "type": "function"
    },
    {
      "constant": true,
      "inputs": [
        {
          "name": "",
          "type": "uint256"
        }
      ],
      "name": "playerToOwner",
      "outputs": [
        {
          "name": "",
          "type": "address"
        }
      ],
      "payable": false,
      "stateMutability": "view",
      "type": "function"
    },
    {
      "constant": true,
      "inputs": [],
      "name": "totalTokenSupply",
      "outputs": [
        {
          "name": "",
          "type": "uint256"
        }
      ],
      "payable": false,
      "stateMutability": "view",
      "type": "function"
    },
    {
      "constant": false,
      "inputs": [],
      "name": "initPlayers",
      "outputs": [],
      "payable": false,
      "stateMutability": "nonpayable",
      "type": "function"
    },
    {
      "constant": true,
      "inputs": [
        {
          "name": "",
          "type": "address"
        }
      ],
      "name": "ownerOwnedTokens",
      "outputs": [
        {
          "name": "",
          "type": "uint256"
        }
      ],
      "payable": false,
      "stateMutability": "view",
      "type": "function"
    },
    {
      "constant": true,
      "inputs": [
        {
          "name": "_owner",
          "type": "address"
        }
      ],
      "name": "getOwnerOwnedPlayers",
      "outputs": [
        {
          "name": "",
          "type": "uint256[]"
        }
      ],
      "payable": false,
      "stateMutability": "view",
      "type": "function"
    },
    {
      "constant": true,
      "inputs": [
        {
          "name": "_playerId",
          "type": "uint256"
        }
      ],
      "name": "getPlayerByPlayerId",
      "outputs": [
        {
          "name": "",
          "type": "string"
        },
        {
          "name": "",
          "type": "uint256"
        },
        {
          "name": "",
          "type": "uint256"
        },
        {
          "name": "",
          "type": "bool"
        },
        {
          "name": "",
          "type": "bool"
        }
      ],
      "payable": false,
      "stateMutability": "view",
      "type": "function"
    },
    {
      "constant": true,
      "inputs": [],
      "name": "tokenPrice",
      "outputs": [
        {
          "name": "",
          "type": "uint256"
        }
      ],
      "payable": false,
      "stateMutability": "view",
      "type": "function"
    },
    {
      "constant": true,
      "inputs": [
        {
          "name": "",
          "type": "uint256"
        }
      ],
      "name": "onSellPlayerList",
      "outputs": [
        {
          "name": "",
          "type": "uint256"
        }
      ],
      "payable": false,
      "stateMutability": "view",
      "type": "function"
    },
    {
      "constant": true,
      "inputs": [
        {
          "name": "",
          "type": "address"
        },
        {
          "name": "",
          "type": "uint256"
        }
      ],
      "name": "ownerOwnedPlayers",
      "outputs": [
        {
          "name": "",
          "type": "uint256"
        }
      ],
      "payable": false,
      "stateMutability": "view",
      "type": "function"
    },
    {
      "constant": true,
      "inputs": [
        {
          "name": "",
          "type": "address"
        }
      ],
      "name": "ownerCountry",
      "outputs": [
        {
          "name": "",
          "type": "string"
        }
      ],
      "payable": false,
      "stateMutability": "view",
      "type": "function"
    },
    {
      "constant": false,
      "inputs": [
        {
          "name": "_name",
          "type": "string"
        },
        {
          "name": "_isStarter",
          "type": "bool"
        }
      ],
      "name": "createRandomPlayer",
      "outputs": [],
      "payable": false,
      "stateMutability": "nonpayable",
      "type": "function"
    },
    {
      "constant": false,
      "inputs": [
        {
          "name": "_country",
          "type": "string"
        }
      ],
      "name": "setCountry",
      "outputs": [],
      "payable": false,
      "stateMutability": "nonpayable",
      "type": "function"
    },
    {
      "constant": true,
      "inputs": [
        {
          "name": "_owner",
          "type": "address"
        }
      ],
      "name": "getCountry",
      "outputs": [
        {
          "name": "",
          "type": "string"
        }
      ],
      "payable": false,
      "stateMutability": "view",
      "type": "function"
    },
    {
      "constant": true,
      "inputs": [],
      "name": "balanceTokens",
      "outputs": [
        {
          "name": "",
          "type": "uint256"
        }
      ],
      "payable": false,
      "stateMutability": "view",
      "type": "function"
    },
    {
      "constant": true,
      "inputs": [
        {
          "name": "",
          "type": "uint256"
        }
      ],
      "name": "players",
      "outputs": [
        {
          "name": "name",
          "type": "string"
        },
        {
          "name": "dna",
          "type": "uint256"
        },
        {
          "name": "power",
          "type": "uint256"
        },
        {
          "name": "isStarter",
          "type": "bool"
        },
        {
          "name": "onSale",
          "type": "bool"
        }
      ],
      "payable": false,
      "stateMutability": "view",
      "type": "function"
    },
    {
      "anonymous": false,
      "inputs": [
        {
          "indexed": false,
          "name": "playerId",
          "type": "uint256"
        },
        {
          "indexed": false,
          "name": "name",
          "type": "string"
        },
        {
          "indexed": false,
          "name": "dna",
          "type": "uint256"
        },
        {
          "indexed": false,
          "name": "power",
          "type": "uint256"
        }
      ],
      "name": "NewPlayer",
      "type": "event"
    },
    {
      "constant": false,
      "inputs": [
        {
          "name": "_playerId",
          "type": "uint256"
        }
      ],
      "name": "setPlayerAsStarter",
      "outputs": [],
      "payable": false,
      "stateMutability": "nonpayable",
      "type": "function"
    },
    {
      "constant": false,
      "inputs": [
        {
          "name": "_playerId",
          "type": "uint256"
        }
      ],
      "name": "removePlayerFromStarter",
      "outputs": [],
      "payable": false,
      "stateMutability": "nonpayable",
      "type": "function"
    },
    {
      "constant": false,
      "inputs": [
        {
          "name": "_playerId",
          "type": "uint256"
        }
      ],
      "name": "sellPlayer",
      "outputs": [],
      "payable": false,
      "stateMutability": "nonpayable",
      "type": "function"
    },
    {
      "constant": false,
      "inputs": [
        {
          "name": "_playerId",
          "type": "uint256"
        }
      ],
      "name": "buyPlayer",
      "outputs": [],
      "payable": false,
      "stateMutability": "nonpayable",
      "type": "function"
    },
    {
      "constant": true,
      "inputs": [],
      "name": "onSalePlayers",
      "outputs": [
        {
          "name": "",
          "type": "uint256[]"
        }
      ],
      "payable": false,
      "stateMutability": "view",
      "type": "function"
    }
  ],
  "bytecode": "0x60806040526008600055600054600a0a6001556000600655610160604051908101604052806040805190810160405280600881526020017f5069636b666f726400000000000000000000000000000000000000000000000081525081526020016040805190810160405280600481526020017f4b616e650000000000000000000000000000000000000000000000000000000081525081526020016040805190810160405280600881526020017f52617368666f726400000000000000000000000000000000000000000000000081525081526020016040805190810160405280600781526020017f57656c6265636b0000000000000000000000000000000000000000000000000081525081526020016040805190810160405280600581526020017f436865656b00000000000000000000000000000000000000000000000000000081525081526020016040805190810160405280600581526020017f4a6f6e657300000000000000000000000000000000000000000000000000000081525081526020016040805190810160405280600581526020017f596f756e6700000000000000000000000000000000000000000000000000000081525081526020016040805190810160405280600681526020017f436168696c6c000000000000000000000000000000000000000000000000000081525081526020016040805190810160405280600481526020017f526f73650000000000000000000000000000000000000000000000000000000081525081526020016040805190810160405280600881526020017f537465726c696e6700000000000000000000000000000000000000000000000081525081526020016040805190810160405280600781526020017f4c696e6761726400000000000000000000000000000000000000000000000000815250815250600790600b620002bd929190620002d2565b50348015620002cb57600080fd5b5062000465565b82805482825590600052602060002090810192821562000326579160200282015b82811115620003255782518290805190602001906200031492919062000339565b5091602001919060010190620002f3565b5b509050620003359190620003c0565b5090565b828054600181600116156101000203166002900490600052602060002090601f016020900481019282601f106200037c57805160ff1916838001178555620003ad565b82800160010185558215620003ad579182015b82811115620003ac5782518255916020019190600101906200038f565b5b509050620003bc9190620003f1565b5090565b620003ee91905b80821115620003ea5760008181620003e0919062000419565b50600101620003c7565b5090565b90565b6200041691905b8082111562000412576000816000905550600101620003f8565b5090565b90565b50805460018160011615610100020316600290046000825580601f1062000441575062000462565b601f016020900490600052602060002090810190620004619190620003f1565b5b50565b61211a80620004756000396000f30060806040526004361061011d576000357c0100000000000000000000000000000000000000000000000000000000900463ffffffff168063178dadf51461012257806319b90d27146101975780631ca8b6cb146102045780631cadd93e1461022f5780634e62ce50146102465780635962fbdb1461029d57806372a20c9514610335578063742a01f6146103625780637de81fca1461042c5780637ff9b59614610459578063809bee6b1461048457806384095d9e146104c5578063882f1dcf146105265780639ccffcfa146105e2578063b5df681a1461060f578063b79fb17a14610684578063d1ad6efe146106f0578063d821f92d14610759578063e4494a0f14610815578063e5661f3014610840578063f71d96cb1461086d575b600080fd5b34801561012e57600080fd5b50610195600480360381019080803590602001908201803590602001908080601f0160208091040260200160405190810160405280939291908181526020018383808284378201915050505050509192919290803515159060200190929190505050610937565b005b3480156101a357600080fd5b506101c2600480360381019080803590602001909291905050506109f3565b604051808273ffffffffffffffffffffffffffffffffffffffff1673ffffffffffffffffffffffffffffffffffffffff16815260200191505060405180910390f35b34801561021057600080fd5b50610219610a26565b6040518082815260200191505060405180910390f35b34801561023b57600080fd5b50610244610a2c565b005b34801561025257600080fd5b50610287600480360381019080803573ffffffffffffffffffffffffffffffffffffffff169060200190929190505050610b58565b6040518082815260200191505060405180910390f35b3480156102a957600080fd5b506102de600480360381019080803573ffffffffffffffffffffffffffffffffffffffff169060200190929190505050610b70565b6040518080602001828103825283818151815260200191508051906020019060200280838360005b83811015610321578082015181840152602081019050610306565b505050509050019250505060405180910390f35b34801561034157600080fd5b5061036060048036038101908080359060200190929190505050610c07565b005b34801561036e57600080fd5b5061038d60048036038101908080359060200190929190505050610cdd565b60405180806020018681526020018581526020018415151515815260200183151515158152602001828103825287818151815260200191508051906020019080838360005b838110156103ed5780820151818401526020810190506103d2565b50505050905090810190601f16801561041a5780820380516001836020036101000a031916815260200191505b50965050505050505060405180910390f35b34801561043857600080fd5b5061045760048036038101908080359060200190929190505050610e34565b005b34801561046557600080fd5b5061046e611189565b6040518082815260200191505060405180910390f35b34801561049057600080fd5b506104af6004803603810190808035906020019092919050505061118f565b6040518082815260200191505060405180910390f35b3480156104d157600080fd5b50610510600480360381019080803573ffffffffffffffffffffffffffffffffffffffff169060200190929190803590602001909291905050506111b2565b6040518082815260200191505060405180910390f35b34801561053257600080fd5b50610567600480360381019080803573ffffffffffffffffffffffffffffffffffffffff1690602001909291905050506111e2565b6040518080602001828103825283818151815260200191508051906020019080838360005b838110156105a757808201518184015260208101905061058c565b50505050905090810190601f1680156105d45780820380516001836020036101000a031916815260200191505b509250505060405180910390f35b3480156105ee57600080fd5b5061060d60048036038101908080359060200190929190505050611292565b005b34801561061b57600080fd5b50610682600480360381019080803590602001908201803590602001908080601f0160208091040260200160405190810160405280939291908181526020018383808284378201915050505050509192919290803515159060200190929190505050611573565b005b34801561069057600080fd5b506106996117cd565b6040518080602001828103825283818151815260200191508051906020019060200280838360005b838110156106dc5780820151818401526020810190506106c1565b505050509050019250505060405180910390f35b3480156106fc57600080fd5b50610757600480360381019080803590602001908201803590602001908080601f0160208091040260200160405190810160405280939291908181526020018383808284378201915050505050509192919290505050611825565b005b34801561076557600080fd5b5061079a600480360381019080803573ffffffffffffffffffffffffffffffffffffffff169060200190929190505050611948565b6040518080602001828103825283818151815260200191508051906020019080838360005b838110156107da5780820151818401526020810190506107bf565b50505050905090810190601f1680156108075780820380516001836020036101000a031916815260200191505b509250505060405180910390f35b34801561082157600080fd5b5061082a611a29565b6040518082815260200191505060405180910390f35b34801561084c57600080fd5b5061086b60048036038101908080359060200190929190505050611a2f565b005b34801561087957600080fd5b5061089860048036038101908080359060200190929190505050611b06565b60405180806020018681526020018581526020018415151515815260200183151515158152602001828103825287818151815260200191508051906020019080838360005b838110156108f85780820151818401526020810190506108dd565b50505050905090810190601f1680156109255780820380516001836020036101000a031916815260200191505b50965050505050505060405180910390f35b600a600b60003373ffffffffffffffffffffffffffffffffffffffff1673ffffffffffffffffffffffffffffffffffffffff168152602001908152602001600020541015151561098657600080fd5b6109908282611573565b600a600b60003373ffffffffffffffffffffffffffffffffffffffff1673ffffffffffffffffffffffffffffffffffffffff16815260200190815260200160002060008282540392505081905550600a6009600082825401925050819055505050565b60036020528060005260406000206000915054906101000a900473ffffffffffffffffffffffffffffffffffffffff1681565b60085481565b600080600460003373ffffffffffffffffffffffffffffffffffffffff1673ffffffffffffffffffffffffffffffffffffffff16815260200190815260200160002080549050141515610a7e57600080fd5b600090505b600b811015610b5557610b48600782815481101515610a9e57fe5b906000526020600020018054600181600116156101000203166002900480601f016020809104026020016040519081016040528092919081815260200182805460018160011615610100020316600290048015610b3c5780601f10610b1157610100808354040283529160200191610b3c565b820191906000526020600020905b815481529060010190602001808311610b1f57829003601f168201915b50505050506001611573565b8080600101915050610a83565b50565b600b6020528060005260406000206000915090505481565b6060600460008373ffffffffffffffffffffffffffffffffffffffff1673ffffffffffffffffffffffffffffffffffffffff168152602001908152602001600020805480602002602001604051908101604052809291908181526020018280548015610bfb57602002820191906000526020600020905b815481526020019060010190808311610be7575b50505050509050919050565b33816003600082815260200190815260200160002060009054906101000a900473ffffffffffffffffffffffffffffffffffffffff1673ffffffffffffffffffffffffffffffffffffffff168273ffffffffffffffffffffffffffffffffffffffff16141515610c7657600080fd5b600b610c8133611bfd565b108015610c945750610c933384611cfd565b5b1515610c9f57600080fd5b6001600284815481101515610cb057fe5b906000526020600020906004020160030160006101000a81548160ff021916908315150217905550505050565b6060600080600080610ced611f48565b600287815481101515610cfc57fe5b906000526020600020906004020160a06040519081016040529081600082018054600181600116156101000203166002900480601f016020809104026020016040519081016040528092919081815260200182805460018160011615610100020316600290048015610daf5780601f10610d8457610100808354040283529160200191610daf565b820191906000526020600020905b815481529060010190602001808311610d9257829003601f168201915b5050505050815260200160018201548152602001600282015481526020016003820160009054906101000a900460ff161515151581526020016003820160019054906101000a900460ff161515151581525050905080600001518160200151826040015183606001518460800151849450955095509550955095505091939590929450565b60606000803373ffffffffffffffffffffffffffffffffffffffff166003600086815260200190815260200160002060009054906101000a900473ffffffffffffffffffffffffffffffffffffffff1673ffffffffffffffffffffffffffffffffffffffff1614158015610ee85750600a600b60003373ffffffffffffffffffffffffffffffffffffffff1673ffffffffffffffffffffffffffffffffffffffff1681526020019081526020016000205410155b1515610ef357600080fd5b600a600b60003373ffffffffffffffffffffffffffffffffffffffff1673ffffffffffffffffffffffffffffffffffffffff16815260200190815260200160002060008282540392505081905550600a600b60006003600088815260200190815260200160002060009054906101000a900473ffffffffffffffffffffffffffffffffffffffff1673ffffffffffffffffffffffffffffffffffffffff1673ffffffffffffffffffffffffffffffffffffffff16815260200190815260200160002060008282540192505081905550336003600086815260200190815260200160002060006101000a81548173ffffffffffffffffffffffffffffffffffffffff021916908373ffffffffffffffffffffffffffffffffffffffff160217905550600460003373ffffffffffffffffffffffffffffffffffffffff1673ffffffffffffffffffffffffffffffffffffffff168152602001908152602001600020849080600181540180825580915050906001820390600052602060002001600090919290919091505550600060028581548110151561108e57fe5b906000526020600020906004020160030160016101000a81548160ff0219169083151502179055506001600c80549050036040519080825280602002602001820160405280156110ed5781602001602082028038833980820191505090505b50925060009150600090505b600c8054905081101561116c57600c8181548110151561111557fe5b90600052602060002001548414151561115f57600c8181548110151561113757fe5b9060005260206000200154838381518110151561115057fe5b90602001906020020181815250505b80806001019150506110f9565b82600c9080519060200190611182929190611f7c565b5050505050565b600a5481565b600c8181548110151561119e57fe5b906000526020600020016000915090505481565b6004602052816000526040600020818154811015156111cd57fe5b90600052602060002001600091509150505481565b60056020528060005260406000206000915090508054600181600116156101000203166002900480601f01602080910402602001604051908101604052809291908181526020018280546001816001161561010002031660029004801561128a5780601f1061125f5761010080835404028352916020019161128a565b820191906000526020600020905b81548152906001019060200180831161126d57829003601f168201915b505050505081565b60606000803373ffffffffffffffffffffffffffffffffffffffff166003600086815260200190815260200160002060009054906101000a900473ffffffffffffffffffffffffffffffffffffffff1673ffffffffffffffffffffffffffffffffffffffff1614151561130457600080fd5b600160028581548110151561131557fe5b906000526020600020906004020160030160016101000a81548160ff0219169083151502179055506001600460003373ffffffffffffffffffffffffffffffffffffffff1673ffffffffffffffffffffffffffffffffffffffff16815260200190815260200160002080549050036040519080825280602002602001820160405280156113b15781602001602082028038833980820191505090505b50925060009150600090505b600460003373ffffffffffffffffffffffffffffffffffffffff1673ffffffffffffffffffffffffffffffffffffffff168152602001908152602001600020805490508110156114ed5783600460003373ffffffffffffffffffffffffffffffffffffffff1673ffffffffffffffffffffffffffffffffffffffff1681526020019081526020016000208281548110151561145457fe5b90600052602060002001541415156114e057600460003373ffffffffffffffffffffffffffffffffffffffff1673ffffffffffffffffffffffffffffffffffffffff168152602001908152602001600020818154811015156114b257fe5b906000526020600020015483838060010194508151811015156114d157fe5b90602001906020020181815250505b80806001019150506113bd565b82600460003373ffffffffffffffffffffffffffffffffffffffff1673ffffffffffffffffffffffffffffffffffffffff1681526020019081526020016000209080519060200190611540929190611f7c565b50600c84908060018154018082558091505090600182039060005260206000200160009091929091909150555050505050565b600080600061158185611e5b565b925092506001600260a0604051908101604052808881526020018681526020018581526020018715158152602001600015158152509080600181540180825580915050906001820390600052602060002090600402016000909192909190915060008201518160000190805190602001906115fd929190611fc9565b50602082015181600101556040820151816002015560608201518160030160006101000a81548160ff02191690831515021790555060808201518160030160016101000a81548160ff0219169083151502179055505050039050336003600083815260200190815260200160002060006101000a81548173ffffffffffffffffffffffffffffffffffffffff021916908373ffffffffffffffffffffffffffffffffffffffff160217905550600460003373ffffffffffffffffffffffffffffffffffffffff1673ffffffffffffffffffffffffffffffffffffffff1681526020019081526020016000208190806001815401808255809150509060018203906000526020600020016000909192909190915055507fa38c36a5508d65570190157ba88d2c600ec5d9a9cf2b90a1a976d7f64769de5e818685856040518085815260200180602001848152602001838152602001828103825285818151815260200191508051906020019080838360005b8381101561178957808201518184015260208101905061176e565b50505050905090810190601f1680156117b65780820380516001836020036101000a031916815260200191505b509550505050505060405180910390a15050505050565b6060600c80548060200260200160405190810160405280929190818152602001828054801561181b57602002820191906000526020600020905b815481526020019060010190808311611807575b5050505050905090565b604051806000019050604051809103902060001916600560003373ffffffffffffffffffffffffffffffffffffffff1673ffffffffffffffffffffffffffffffffffffffff16815260200190815260200160002060405180828054600181600116156101000203166002900480156118d45780601f106118b25761010080835404028352918201916118d4565b820191906000526020600020905b8154815290600101906020018083116118c0575b50509150506040518091039020600019161415156118f157600080fd5b80600560003373ffffffffffffffffffffffffffffffffffffffff1673ffffffffffffffffffffffffffffffffffffffff1681526020019081526020016000209080519060200190611944929190612049565b5050565b6060600560008373ffffffffffffffffffffffffffffffffffffffff1673ffffffffffffffffffffffffffffffffffffffff1681526020019081526020016000208054600181600116156101000203166002900480601f016020809104026020016040519081016040528092919081815260200182805460018160011615610100020316600290048015611a1d5780601f106119f257610100808354040283529160200191611a1d565b820191906000526020600020905b815481529060010190602001808311611a0057829003601f168201915b50505050509050919050565b60095481565b33816003600082815260200190815260200160002060009054906101000a900473ffffffffffffffffffffffffffffffffffffffff1673ffffffffffffffffffffffffffffffffffffffff168273ffffffffffffffffffffffffffffffffffffffff16141515611a9e57600080fd5b6000611aa933611bfd565b118015611abd5750611abb3384611cfd565b155b1515611ac857600080fd5b6000600284815481101515611ad957fe5b906000526020600020906004020160030160006101000a81548160ff021916908315150217905550505050565b600281815481101515611b1557fe5b9060005260206000209060040201600091509050806000018054600181600116156101000203166002900480601f016020809104026020016040519081016040528092919081815260200182805460018160011615610100020316600290048015611bc15780601f10611b9657610100808354040283529160200191611bc1565b820191906000526020600020905b815481529060010190602001808311611ba457829003601f168201915b5050505050908060010154908060020154908060030160009054906101000a900460ff16908060030160019054906101000a900460ff16905085565b6000806000809150600090505b600460008573ffffffffffffffffffffffffffffffffffffffff1673ffffffffffffffffffffffffffffffffffffffff16815260200190815260200160002080549050811015611cf3576002600460008673ffffffffffffffffffffffffffffffffffffffff1673ffffffffffffffffffffffffffffffffffffffff16815260200190815260200160002082815481101515611ca257fe5b9060005260206000200154815481101515611cb957fe5b906000526020600020906004020160030160009054906101000a900460ff1615611ce65781806001019250505b8080600101915050611c0a565b8192505050919050565b600080600090505b600460008573ffffffffffffffffffffffffffffffffffffffff1673ffffffffffffffffffffffffffffffffffffffff16815260200190815260200160002080549050811015611e4f5782600460008673ffffffffffffffffffffffffffffffffffffffff1673ffffffffffffffffffffffffffffffffffffffff16815260200190815260200160002082815481101515611d9c57fe5b9060005260206000200154148015611e3457506002600460008673ffffffffffffffffffffffffffffffffffffffff1673ffffffffffffffffffffffffffffffffffffffff16815260200190815260200160002082815481101515611dfd57fe5b9060005260206000200154815481101515611e1457fe5b906000526020600020906004020160030160009054906101000a900460ff165b15611e425760009150611e54565b8080600101915050611d05565b600191505b5092915050565b600080600080844260066000815480929190600101919050556040518084805190602001908083835b602083101515611ea95780518252602082019150602081019050602083039250611e84565b6001836020036101000a0380198251168184511680821785525050505050509050018381526020018281526020019350505050604051809103902060019004915060015482811515611ef757fe5b06915060648083811515611f0757fe5b04811515611f1157fe5b069050601481111515611f2957603c81019050611f3b565b603281111515611f3a57601e810190505b5b8181935093505050915091565b60a0604051908101604052806060815260200160008152602001600081526020016000151581526020016000151581525090565b828054828255906000526020600020908101928215611fb8579160200282015b82811115611fb7578251825591602001919060010190611f9c565b5b509050611fc591906120c9565b5090565b828054600181600116156101000203166002900490600052602060002090601f016020900481019282601f1061200a57805160ff1916838001178555612038565b82800160010185558215612038579182015b8281111561203757825182559160200191906001019061201c565b5b50905061204591906120c9565b5090565b828054600181600116156101000203166002900490600052602060002090601f016020900481019282601f1061208a57805160ff19168380011785556120b8565b828001600101855582156120b8579182015b828111156120b757825182559160200191906001019061209c565b5b5090506120c591906120c9565b5090565b6120eb91905b808211156120e75760008160009055506001016120cf565b5090565b905600a165627a7a72305820777101707476cf5298c234a49cc623ef1c26ef232c0e6c3d6075428bd5b5b6940029",
  "source": "pragma solidity ^0.4.23;\n\nimport \"./PlayerFactory.sol\";\n\ncontract TeamSetting is PlayerFactory {\n\n    modifier onlyOwner(address _owner, uint _playerId) {\n        require(_owner == playerToOwner[_playerId]);\n        _;\n    }\n\n    uint[] public onSellPlayerList;\n\n    function startersCount(address _owner) view private returns (uint) {\n        uint starterCount = 0;\n        for (uint i = 0; i < ownerOwnedPlayers[_owner].length; i++) {\n            if (players[ownerOwnedPlayers[_owner][i]].isStarter) {\n                starterCount++;\n            }\n        }\n\n        return starterCount;\n    }\n\n    function playerNotStarter(address _owner, uint _playerId) view private returns (bool) {\n        for (uint i = 0; i < ownerOwnedPlayers[_owner].length; i++) {\n            if (ownerOwnedPlayers[_owner][i] == _playerId && players[ownerOwnedPlayers[_owner][i]].isStarter) {\n                return false;\n            }\n        }\n\n        return true;\n    }\n\n    function setPlayerAsStarter(uint _playerId) public onlyOwner(msg.sender, _playerId) {\n        require(startersCount(msg.sender) < 11 && playerNotStarter(msg.sender, _playerId));\n        players[_playerId].isStarter = true;\n    }\n\n    \n    function removePlayerFromStarter(uint _playerId) public onlyOwner(msg.sender, _playerId) {\n        require(startersCount(msg.sender) > 0 && !playerNotStarter(msg.sender, _playerId));\n        players[_playerId].isStarter = false;\n    }\n\n    function sellPlayer(uint _playerId) public {\n        require(playerToOwner[_playerId] == msg.sender);\n        players[_playerId].onSale = true;\n\n        uint[] memory sellerCurrentPlayersId = new uint[](ownerOwnedPlayers[msg.sender].length - 1);\n        uint index = 0;\n        for (uint i = 0; i < ownerOwnedPlayers[msg.sender].length; i++) {\n            if (ownerOwnedPlayers[msg.sender][i] != _playerId) {\n                sellerCurrentPlayersId[index++] = ownerOwnedPlayers[msg.sender][i];\n            }\n        }\n\n        ownerOwnedPlayers[msg.sender] = sellerCurrentPlayersId;\n\n        onSellPlayerList.push(_playerId);\n    }\n\n    function buyPlayer(uint _playerId) public {\n        require(playerToOwner[_playerId] != msg.sender && ownerOwnedTokens[msg.sender] >= 10);\n        ownerOwnedTokens[msg.sender] -= 10;\n        ownerOwnedTokens[playerToOwner[_playerId]] += 10;\n        playerToOwner[_playerId] = msg.sender;\n        ownerOwnedPlayers[msg.sender].push(_playerId);\n        players[_playerId].onSale = false;\n\n        uint[] memory curPlayersList = new uint[](onSellPlayerList.length - 1);\n        uint index = 0;\n        for (uint i = 0; i < onSellPlayerList.length; i++) {\n            if (_playerId != onSellPlayerList[i]) {\n                curPlayersList[index] = onSellPlayerList[i];\n            }\n        }\n        \n        onSellPlayerList = curPlayersList;\n    }\n\n    function onSalePlayers() view public returns (uint[]) {\n        return onSellPlayerList;\n    }\n}",
  "sourcePath": "/Users/James/Project/worldcuptest/contracts/TeamSetting.sol",
  "compiler": {
    "name": "solc",
    "version": "0.4.24+commit.e67f0147.Emscripten.clang"
  },
  "schemaVersion": "2.0.1",
  "updatedAt": "2018-07-15T05:08:16.931Z"
}