{
  "contractName": "WorldCup",
  "abi": [
    {
      "constant": true,
      "inputs": [
        {
          "name": "_owner",
          "type": "address"
        }
      ],
      "name": "queryMyLatestMatchResult",
      "outputs": [
        {
          "name": "",
          "type": "address"
        },
        {
          "name": "",
          "type": "string"
        }
      ],
      "payable": false,
      "stateMutability": "view",
      "type": "function"
    },
    {
      "constant": false,
      "inputs": [
        {
          "name": "_name",
          "type": "string"
        },
        {
          "name": "_isStarter",
          "type": "bool"
        }
      ],
      "name": "createPlayerByToken",
      "outputs": [],
      "payable": false,
      "stateMutability": "nonpayable",
      "type": "function"
    },
    {
      "constant": true,
      "inputs": [
        {
          "name": "",
          "type": "uint256"
        }
      ],
      "name": "playerToOwner",
      "outputs": [
        {
          "name": "",
          "type": "address"
        }
      ],
      "payable": false,
      "stateMutability": "view",
      "type": "function"
    },
    {
      "constant": true,
      "inputs": [],
      "name": "totalTokenSupply",
      "outputs": [
        {
          "name": "",
          "type": "uint256"
        }
      ],
      "payable": false,
      "stateMutability": "view",
      "type": "function"
    },
    {
      "constant": false,
      "inputs": [],
      "name": "initPlayers",
      "outputs": [],
      "payable": false,
      "stateMutability": "nonpayable",
      "type": "function"
    },
    {
      "constant": true,
      "inputs": [
        {
          "name": "",
          "type": "address"
        },
        {
          "name": "",
          "type": "uint256"
        }
      ],
      "name": "ownerMatches",
      "outputs": [
        {
          "name": "",
          "type": "uint256"
        }
      ],
      "payable": false,
      "stateMutability": "view",
      "type": "function"
    },
    {
      "constant": true,
      "inputs": [
        {
          "name": "_owner",
          "type": "address"
        }
      ],
      "name": "queryCurrentMatch",
      "outputs": [
        {
          "name": "",
          "type": "string"
        }
      ],
      "payable": false,
      "stateMutability": "view",
      "type": "function"
    },
    {
      "constant": true,
      "inputs": [
        {
          "name": "",
          "type": "address"
        }
      ],
      "name": "ownerOwnedTokens",
      "outputs": [
        {
          "name": "",
          "type": "uint256"
        }
      ],
      "payable": false,
      "stateMutability": "view",
      "type": "function"
    },
    {
      "constant": true,
      "inputs": [
        {
          "name": "_owner",
          "type": "address"
        }
      ],
      "name": "getOwnerOwnedPlayers",
      "outputs": [
        {
          "name": "",
          "type": "uint256[]"
        }
      ],
      "payable": false,
      "stateMutability": "view",
      "type": "function"
    },
    {
      "constant": false,
      "inputs": [
        {
          "name": "_playerId",
          "type": "uint256"
        }
      ],
      "name": "setPlayerAsStarter",
      "outputs": [],
      "payable": false,
      "stateMutability": "nonpayable",
      "type": "function"
    },
    {
      "constant": true,
      "inputs": [
        {
          "name": "_playerId",
          "type": "uint256"
        }
      ],
      "name": "getPlayerByPlayerId",
      "outputs": [
        {
          "name": "",
          "type": "string"
        },
        {
          "name": "",
          "type": "uint256"
        },
        {
          "name": "",
          "type": "uint256"
        },
        {
          "name": "",
          "type": "bool"
        },
        {
          "name": "",
          "type": "bool"
        }
      ],
      "payable": false,
      "stateMutability": "view",
      "type": "function"
    },
    {
      "constant": true,
      "inputs": [
        {
          "name": "_owner",
          "type": "address"
        }
      ],
      "name": "getTeamStarters",
      "outputs": [
        {
          "name": "",
          "type": "uint256[]"
        }
      ],
      "payable": false,
      "stateMutability": "view",
      "type": "function"
    },
    {
      "constant": false,
      "inputs": [
        {
          "name": "_playerId",
          "type": "uint256"
        }
      ],
      "name": "buyPlayer",
      "outputs": [],
      "payable": false,
      "stateMutability": "nonpayable",
      "type": "function"
    },
    {
      "constant": true,
      "inputs": [],
      "name": "tokenPrice",
      "outputs": [
        {
          "name": "",
          "type": "uint256"
        }
      ],
      "payable": false,
      "stateMutability": "view",
      "type": "function"
    },
    {
      "constant": true,
      "inputs": [
        {
          "name": "",
          "type": "uint256"
        }
      ],
      "name": "onSellPlayerList",
      "outputs": [
        {
          "name": "",
          "type": "uint256"
        }
      ],
      "payable": false,
      "stateMutability": "view",
      "type": "function"
    },
    {
      "constant": true,
      "inputs": [
        {
          "name": "",
          "type": "address"
        },
        {
          "name": "",
          "type": "uint256"
        }
      ],
      "name": "ownerOwnedPlayers",
      "outputs": [
        {
          "name": "",
          "type": "uint256"
        }
      ],
      "payable": false,
      "stateMutability": "view",
      "type": "function"
    },
    {
      "constant": true,
      "inputs": [
        {
          "name": "",
          "type": "address"
        }
      ],
      "name": "ownerCountry",
      "outputs": [
        {
          "name": "",
          "type": "string"
        }
      ],
      "payable": false,
      "stateMutability": "view",
      "type": "function"
    },
    {
      "constant": false,
      "inputs": [
        {
          "name": "_playerId",
          "type": "uint256"
        }
      ],
      "name": "sellPlayer",
      "outputs": [],
      "payable": false,
      "stateMutability": "nonpayable",
      "type": "function"
    },
    {
      "constant": true,
      "inputs": [
        {
          "name": "",
          "type": "uint256"
        }
      ],
      "name": "matchArray",
      "outputs": [
        {
          "name": "player1",
          "type": "address"
        },
        {
          "name": "player2",
          "type": "address"
        },
        {
          "name": "status",
          "type": "uint8"
        }
      ],
      "payable": false,
      "stateMutability": "view",
      "type": "function"
    },
    {
      "constant": false,
      "inputs": [
        {
          "name": "_name",
          "type": "string"
        },
        {
          "name": "_isStarter",
          "type": "bool"
        }
      ],
      "name": "createRandomPlayer",
      "outputs": [],
      "payable": false,
      "stateMutability": "nonpayable",
      "type": "function"
    },
    {
      "constant": true,
      "inputs": [],
      "name": "onSalePlayers",
      "outputs": [
        {
          "name": "",
          "type": "uint256[]"
        }
      ],
      "payable": false,
      "stateMutability": "view",
      "type": "function"
    },
    {
      "constant": false,
      "inputs": [
        {
          "name": "_country",
          "type": "string"
        }
      ],
      "name": "setCountry",
      "outputs": [],
      "payable": false,
      "stateMutability": "nonpayable",
      "type": "function"
    },
    {
      "constant": true,
      "inputs": [
        {
          "name": "_owner",
          "type": "address"
        }
      ],
      "name": "getCountry",
      "outputs": [
        {
          "name": "",
          "type": "string"
        }
      ],
      "payable": false,
      "stateMutability": "view",
      "type": "function"
    },
    {
      "constant": true,
      "inputs": [],
      "name": "getOtherWaitingPlayerAddress",
      "outputs": [
        {
          "name": "",
          "type": "address"
        }
      ],
      "payable": false,
      "stateMutability": "view",
      "type": "function"
    },
    {
      "constant": false,
      "inputs": [],
      "name": "attendMatch",
      "outputs": [
        {
          "name": "",
          "type": "uint256"
        }
      ],
      "payable": false,
      "stateMutability": "nonpayable",
      "type": "function"
    },
    {
      "constant": true,
      "inputs": [],
      "name": "balanceTokens",
      "outputs": [
        {
          "name": "",
          "type": "uint256"
        }
      ],
      "payable": false,
      "stateMutability": "view",
      "type": "function"
    },
    {
      "constant": false,
      "inputs": [
        {
          "name": "_playerId",
          "type": "uint256"
        }
      ],
      "name": "removePlayerFromStarter",
      "outputs": [],
      "payable": false,
      "stateMutability": "nonpayable",
      "type": "function"
    },
    {
      "constant": true,
      "inputs": [
        {
          "name": "",
          "type": "uint256"
        }
      ],
      "name": "players",
      "outputs": [
        {
          "name": "name",
          "type": "string"
        },
        {
          "name": "dna",
          "type": "uint256"
        },
        {
          "name": "power",
          "type": "uint256"
        },
        {
          "name": "isStarter",
          "type": "bool"
        },
        {
          "name": "onSale",
          "type": "bool"
        }
      ],
      "payable": false,
      "stateMutability": "view",
      "type": "function"
    },
    {
      "inputs": [
        {
          "name": "totalTokens",
          "type": "uint256"
        },
        {
          "name": "pricePerToken",
          "type": "uint256"
        }
      ],
      "payable": false,
      "stateMutability": "nonpayable",
      "type": "constructor"
    },
    {
      "anonymous": false,
      "inputs": [
        {
          "indexed": false,
          "name": "player1",
          "type": "address"
        },
        {
          "indexed": false,
          "name": "player2",
          "type": "address"
        },
        {
          "indexed": false,
          "name": "matchId",
          "type": "uint256"
        },
        {
          "indexed": false,
          "name": "player1Result",
          "type": "string"
        },
        {
          "indexed": false,
          "name": "player2Result",
          "type": "string"
        }
      ],
      "name": "NewMatch",
      "type": "event"
    },
    {
      "anonymous": false,
      "inputs": [
        {
          "indexed": false,
          "name": "playerId",
          "type": "uint256"
        },
        {
          "indexed": false,
          "name": "name",
          "type": "string"
        },
        {
          "indexed": false,
          "name": "dna",
          "type": "uint256"
        },
        {
          "indexed": false,
          "name": "power",
          "type": "uint256"
        }
      ],
      "name": "NewPlayer",
      "type": "event"
    },
    {
      "constant": true,
      "inputs": [
        {
          "name": "_owner",
          "type": "address"
        }
      ],
      "name": "getBalanceOf",
      "outputs": [
        {
          "name": "",
          "type": "uint256"
        }
      ],
      "payable": false,
      "stateMutability": "view",
      "type": "function"
    },
    {
      "constant": false,
      "inputs": [],
      "name": "buy",
      "outputs": [
        {
          "name": "",
          "type": "uint256"
        }
      ],
      "payable": true,
      "stateMutability": "payable",
      "type": "function"
    }
  ],
  "bytecode": "0x60806040526008600055600054600a0a6001556000600655610160604051908101604052806040805190810160405280600881526020017f5069636b666f726400000000000000000000000000000000000000000000000081525081526020016040805190810160405280600481526020017f4b616e650000000000000000000000000000000000000000000000000000000081525081526020016040805190810160405280600881526020017f52617368666f726400000000000000000000000000000000000000000000000081525081526020016040805190810160405280600781526020017f57656c6265636b0000000000000000000000000000000000000000000000000081525081526020016040805190810160405280600581526020017f436865656b00000000000000000000000000000000000000000000000000000081525081526020016040805190810160405280600581526020017f4a6f6e657300000000000000000000000000000000000000000000000000000081525081526020016040805190810160405280600581526020017f596f756e6700000000000000000000000000000000000000000000000000000081525081526020016040805190810160405280600681526020017f436168696c6c000000000000000000000000000000000000000000000000000081525081526020016040805190810160405280600481526020017f526f73650000000000000000000000000000000000000000000000000000000081525081526020016040805190810160405280600881526020017f537465726c696e6700000000000000000000000000000000000000000000000081525081526020016040805190810160405280600781526020017f4c696e6761726400000000000000000000000000000000000000000000000000815250815250600790600b620002bd92919062000316565b50348015620002cb57600080fd5b50604051604080620040ee8339810180604052810190808051906020019092919080519060200190929190505050816008819055508160098190555080600a819055505050620004a9565b8280548282559060005260206000209081019282156200036a579160200282015b8281111562000369578251829080519060200190620003589291906200037d565b509160200191906001019062000337565b5b50905062000379919062000404565b5090565b828054600181600116156101000203166002900490600052602060002090601f016020900481019282601f10620003c057805160ff1916838001178555620003f1565b82800160010185558215620003f1579182015b82811115620003f0578251825591602001919060010190620003d3565b5b50905062000400919062000435565b5090565b6200043291905b808211156200042e57600081816200042491906200045d565b506001016200040b565b5090565b90565b6200045a91905b80821115620004565760008160009055506001016200043c565b5090565b90565b50805460018160011615610100020316600290046000825580601f10620004855750620004a6565b601f016020900490600052602060002090810190620004a5919062000435565b5b50565b613c3580620004b96000396000f300608060405260043610610180576000357c0100000000000000000000000000000000000000000000000000000000900463ffffffff16806316a5778714610185578063178dadf51461027457806319b90d27146102e95780631ca8b6cb146103565780631cadd93e1461038157806331403667146103985780633f5658f6146103f95780634e62ce50146104b55780635962fbdb1461050c57806372a20c95146105a4578063742a01f6146105d15780637d46068b1461069b5780637de81fca146107335780637ff9b59614610760578063809bee6b1461078b57806384095d9e146107cc578063882f1dcf1461082d5780639b96eece146108e95780639ccffcfa14610940578063a6f2ae3a1461096d578063b19c65581461098b578063b5df681a14610a40578063b79fb17a14610ab5578063d1ad6efe14610b21578063d821f92d14610b8a578063d988681714610c46578063daad2a7214610c9d578063e4494a0f14610cc8578063e5661f3014610cf3578063f71d96cb14610d20575b600080fd5b34801561019157600080fd5b506101c6600480360381019080803573ffffffffffffffffffffffffffffffffffffffff169060200190929190505050610dea565b604051808373ffffffffffffffffffffffffffffffffffffffff1673ffffffffffffffffffffffffffffffffffffffff16815260200180602001828103825283818151815260200191508051906020019080838360005b8381101561023857808201518184015260208101905061021d565b50505050905090810190601f1680156102655780820380516001836020036101000a031916815260200191505b50935050505060405180910390f35b34801561028057600080fd5b506102e7600480360381019080803590602001908201803590602001908080601f0160208091040260200160405190810160405280939291908181526020018383808284378201915050505050509192919290803515159060200190929190505050611085565b005b3480156102f557600080fd5b5061031460048036038101908080359060200190929190505050611141565b604051808273ffffffffffffffffffffffffffffffffffffffff1673ffffffffffffffffffffffffffffffffffffffff16815260200191505060405180910390f35b34801561036257600080fd5b5061036b611174565b6040518082815260200191505060405180910390f35b34801561038d57600080fd5b5061039661117a565b005b3480156103a457600080fd5b506103e3600480360381019080803573ffffffffffffffffffffffffffffffffffffffff169060200190929190803590602001909291905050506112a6565b6040518082815260200191505060405180910390f35b34801561040557600080fd5b5061043a600480360381019080803573ffffffffffffffffffffffffffffffffffffffff1690602001909291905050506112d6565b6040518080602001828103825283818151815260200191508051906020019080838360005b8381101561047a57808201518184015260208101905061045f565b50505050905090810190601f1680156104a75780820380516001836020036101000a031916815260200191505b509250505060405180910390f35b3480156104c157600080fd5b506104f6600480360381019080803573ffffffffffffffffffffffffffffffffffffffff16906020019092919050505061146f565b6040518082815260200191505060405180910390f35b34801561051857600080fd5b5061054d600480360381019080803573ffffffffffffffffffffffffffffffffffffffff169060200190929190505050611487565b6040518080602001828103825283818151815260200191508051906020019060200280838360005b83811015610590578082015181840152602081019050610575565b505050509050019250505060405180910390f35b3480156105b057600080fd5b506105cf6004803603810190808035906020019092919050505061151e565b005b3480156105dd57600080fd5b506105fc600480360381019080803590602001909291905050506115f4565b60405180806020018681526020018581526020018415151515815260200183151515158152602001828103825287818151815260200191508051906020019080838360005b8381101561065c578082015181840152602081019050610641565b50505050905090810190601f1680156106895780820380516001836020036101000a031916815260200191505b50965050505050505060405180910390f35b3480156106a757600080fd5b506106dc600480360381019080803573ffffffffffffffffffffffffffffffffffffffff16906020019092919050505061174b565b6040518080602001828103825283818151815260200191508051906020019060200280838360005b8381101561071f578082015181840152602081019050610704565b505050509050019250505060405180910390f35b34801561073f57600080fd5b5061075e600480360381019080803590602001909291905050506118c0565b005b34801561076c57600080fd5b50610775611c15565b6040518082815260200191505060405180910390f35b34801561079757600080fd5b506107b660048036038101908080359060200190929190505050611c1b565b6040518082815260200191505060405180910390f35b3480156107d857600080fd5b50610817600480360381019080803573ffffffffffffffffffffffffffffffffffffffff16906020019092919080359060200190929190505050611c3e565b6040518082815260200191505060405180910390f35b34801561083957600080fd5b5061086e600480360381019080803573ffffffffffffffffffffffffffffffffffffffff169060200190929190505050611c6e565b6040518080602001828103825283818151815260200191508051906020019080838360005b838110156108ae578082015181840152602081019050610893565b50505050905090810190601f1680156108db5780820380516001836020036101000a031916815260200191505b509250505060405180910390f35b3480156108f557600080fd5b5061092a600480360381019080803573ffffffffffffffffffffffffffffffffffffffff169060200190929190505050611d1e565b6040518082815260200191505060405180910390f35b34801561094c57600080fd5b5061096b60048036038101908080359060200190929190505050611d67565b005b610975612048565b6040518082815260200191505060405180910390f35b34801561099757600080fd5b506109b6600480360381019080803590602001909291905050506120d0565b604051808473ffffffffffffffffffffffffffffffffffffffff1673ffffffffffffffffffffffffffffffffffffffff1681526020018373ffffffffffffffffffffffffffffffffffffffff1673ffffffffffffffffffffffffffffffffffffffff168152602001826001811115610a2a57fe5b60ff168152602001935050505060405180910390f35b348015610a4c57600080fd5b50610ab3600480360381019080803590602001908201803590602001908080601f0160208091040260200160405190810160405280939291908181526020018383808284378201915050505050509192919290803515159060200190929190505050612156565b005b348015610ac157600080fd5b50610aca6123b0565b6040518080602001828103825283818151815260200191508051906020019060200280838360005b83811015610b0d578082015181840152602081019050610af2565b505050509050019250505060405180910390f35b348015610b2d57600080fd5b50610b88600480360381019080803590602001908201803590602001908080601f0160208091040260200160405190810160405280939291908181526020018383808284378201915050505050509192919290505050612408565b005b348015610b9657600080fd5b50610bcb600480360381019080803573ffffffffffffffffffffffffffffffffffffffff16906020019092919050505061252b565b6040518080602001828103825283818151815260200191508051906020019080838360005b83811015610c0b578082015181840152602081019050610bf0565b50505050905090810190601f168015610c385780820380516001836020036101000a031916815260200191505b509250505060405180910390f35b348015610c5257600080fd5b50610c5b61260c565b604051808273ffffffffffffffffffffffffffffffffffffffff1673ffffffffffffffffffffffffffffffffffffffff16815260200191505060405180910390f35b348015610ca957600080fd5b50610cb261265c565b6040518082815260200191505060405180910390f35b348015610cd457600080fd5b50610cdd6132ec565b6040518082815260200191505060405180910390f35b348015610cff57600080fd5b50610d1e600480360381019080803590602001909291905050506132f2565b005b348015610d2c57600080fd5b50610d4b600480360381019080803590602001909291905050506133c9565b60405180806020018681526020018581526020018415151515815260200183151515158152602001828103825287818151815260200191508051906020019080838360005b83811015610dab578082015181840152602081019050610d90565b50505050905090810190601f168015610dd85780820380516001836020036101000a031916815260200191505b50965050505050505060405180910390f35b600060606000600d6001600d8054905003815481101515610e0757fe5b9060005260206000209060040201905060018160010160149054906101000a900460ff166001811115610e3657fe5b14156110425760006002811115610e4957fe5b8160020160008673ffffffffffffffffffffffffffffffffffffffff1673ffffffffffffffffffffffffffffffffffffffff16815260200190815260200160002060009054906101000a900460ff166002811115610ea357fe5b1415610f0d578060010160009054906101000a900473ffffffffffffffffffffffffffffffffffffffff166040805190810160405280600481526020017f4c4f5345000000000000000000000000000000000000000000000000000000008152509250925061107f565b60016002811115610f1a57fe5b8160020160008673ffffffffffffffffffffffffffffffffffffffff1673ffffffffffffffffffffffffffffffffffffffff16815260200190815260200160002060009054906101000a900460ff166002811115610f7457fe5b1415610fde578060010160009054906101000a900473ffffffffffffffffffffffffffffffffffffffff166040805190810160405280600381526020017f54494500000000000000000000000000000000000000000000000000000000008152509250925061107f565b8060010160009054906101000a900473ffffffffffffffffffffffffffffffffffffffff166040805190810160405280600381526020017f57494e00000000000000000000000000000000000000000000000000000000008152509250925061107f565b60006040805190810160405280600781526020017f57414954494e4700000000000000000000000000000000000000000000000000815250925092505b50915091565b600a600b60003373ffffffffffffffffffffffffffffffffffffffff1673ffffffffffffffffffffffffffffffffffffffff16815260200190815260200160002054101515156110d457600080fd5b6110de8282612156565b600a600b60003373ffffffffffffffffffffffffffffffffffffffff1673ffffffffffffffffffffffffffffffffffffffff16815260200190815260200160002060008282540392505081905550600a6009600082825401925050819055505050565b60036020528060005260406000206000915054906101000a900473ffffffffffffffffffffffffffffffffffffffff1681565b60085481565b600080600460003373ffffffffffffffffffffffffffffffffffffffff1673ffffffffffffffffffffffffffffffffffffffff168152602001908152602001600020805490501415156111cc57600080fd5b600090505b600b8110156112a3576112966007828154811015156111ec57fe5b906000526020600020018054600181600116156101000203166002900480601f01602080910402602001604051908101604052809291908181526020018280546001816001161561010002031660029004801561128a5780601f1061125f5761010080835404028352916020019161128a565b820191906000526020600020905b81548152906001019060200180831161126d57829003601f168201915b50505050506001612156565b80806001019150506111d1565b50565b600e602052816000526040600020818154811015156112c157fe5b90600052602060002001600091509150505481565b60606000600d80549050148061133657506001808111156112f357fe5b600d6001600d805490500381548110151561130a57fe5b906000526020600020906004020160010160149054906101000a900460ff16600181111561133457fe5b145b15611378576040805190810160405280600881526020017f4e4f5f4d41544348000000000000000000000000000000000000000000000000815250905061146a565b8173ffffffffffffffffffffffffffffffffffffffff16600d6001600d80549050038154811015156113a657fe5b906000526020600020906004020160000160009054906101000a900473ffffffffffffffffffffffffffffffffffffffff1673ffffffffffffffffffffffffffffffffffffffff161415611431576040805190810160405280600a81526020017f4d455f57414954494e4700000000000000000000000000000000000000000000815250905061146a565b6040805190810160405280600d81526020017f4f544845525f57414954494e470000000000000000000000000000000000000081525090505b919050565b600b6020528060005260406000206000915090505481565b6060600460008373ffffffffffffffffffffffffffffffffffffffff1673ffffffffffffffffffffffffffffffffffffffff16815260200190815260200160002080548060200260200160405190810160405280929190818152602001828054801561151257602002820191906000526020600020905b8154815260200190600101908083116114fe575b50505050509050919050565b33816003600082815260200190815260200160002060009054906101000a900473ffffffffffffffffffffffffffffffffffffffff1673ffffffffffffffffffffffffffffffffffffffff168273ffffffffffffffffffffffffffffffffffffffff1614151561158d57600080fd5b600b611598336134c0565b1080156115ab57506115aa33846135c0565b5b15156115b657600080fd5b60016002848154811015156115c757fe5b906000526020600020906004020160030160006101000a81548160ff021916908315150217905550505050565b6060600080600080611604613a63565b60028781548110151561161357fe5b906000526020600020906004020160a06040519081016040529081600082018054600181600116156101000203166002900480601f0160208091040260200160405190810160405280929190818152602001828054600181600116156101000203166002900480156116c65780601f1061169b576101008083540402835291602001916116c6565b820191906000526020600020905b8154815290600101906020018083116116a957829003601f168201915b5050505050815260200160018201548152602001600282015481526020016003820160009054906101000a900460ff161515151581526020016003820160019054906101000a900460ff161515151581525050905080600001518160200151826040015183606001518460800151849450955095509550955095505091939590929450565b6060806060600080600b6040519080825280602002602001820160405280156117835781602001602082028038833980820191505090505b509350600460008773ffffffffffffffffffffffffffffffffffffffff1673ffffffffffffffffffffffffffffffffffffffff16815260200190815260200160002080548060200260200160405190810160405280929190818152602001828054801561180f57602002820191906000526020600020905b8154815260200190600101908083116117fb575b5050505050925060009150600090505b82518110156118b4576002838281518110151561183857fe5b9060200190602002015181548110151561184e57fe5b906000526020600020906004020160030160009054906101000a900460ff16156118a757828181518110151561188057fe5b90602001906020020151848381518110151561189857fe5b90602001906020020181815250505b808060010191505061181f565b83945050505050919050565b60606000803373ffffffffffffffffffffffffffffffffffffffff166003600086815260200190815260200160002060009054906101000a900473ffffffffffffffffffffffffffffffffffffffff1673ffffffffffffffffffffffffffffffffffffffff16141580156119745750600a600b60003373ffffffffffffffffffffffffffffffffffffffff1673ffffffffffffffffffffffffffffffffffffffff1681526020019081526020016000205410155b151561197f57600080fd5b600a600b60003373ffffffffffffffffffffffffffffffffffffffff1673ffffffffffffffffffffffffffffffffffffffff16815260200190815260200160002060008282540392505081905550600a600b60006003600088815260200190815260200160002060009054906101000a900473ffffffffffffffffffffffffffffffffffffffff1673ffffffffffffffffffffffffffffffffffffffff1673ffffffffffffffffffffffffffffffffffffffff16815260200190815260200160002060008282540192505081905550336003600086815260200190815260200160002060006101000a81548173ffffffffffffffffffffffffffffffffffffffff021916908373ffffffffffffffffffffffffffffffffffffffff160217905550600460003373ffffffffffffffffffffffffffffffffffffffff1673ffffffffffffffffffffffffffffffffffffffff1681526020019081526020016000208490806001815401808255809150509060018203906000526020600020016000909192909190915055506000600285815481101515611b1a57fe5b906000526020600020906004020160030160016101000a81548160ff0219169083151502179055506001600c8054905003604051908082528060200260200182016040528015611b795781602001602082028038833980820191505090505b50925060009150600090505b600c80549050811015611bf857600c81815481101515611ba157fe5b906000526020600020015484141515611beb57600c81815481101515611bc357fe5b90600052602060002001548383815181101515611bdc57fe5b90602001906020020181815250505b8080600101915050611b85565b82600c9080519060200190611c0e929190613a97565b5050505050565b600a5481565b600c81815481101515611c2a57fe5b906000526020600020016000915090505481565b600460205281600052604060002081815481101515611c5957fe5b90600052602060002001600091509150505481565b60056020528060005260406000206000915090508054600181600116156101000203166002900480601f016020809104026020016040519081016040528092919081815260200182805460018160011615610100020316600290048015611d165780601f10611ceb57610100808354040283529160200191611d16565b820191906000526020600020905b815481529060010190602001808311611cf957829003601f168201915b505050505081565b6000600b60008373ffffffffffffffffffffffffffffffffffffffff1673ffffffffffffffffffffffffffffffffffffffff168152602001908152602001600020549050919050565b60606000803373ffffffffffffffffffffffffffffffffffffffff166003600086815260200190815260200160002060009054906101000a900473ffffffffffffffffffffffffffffffffffffffff1673ffffffffffffffffffffffffffffffffffffffff16141515611dd957600080fd5b6001600285815481101515611dea57fe5b906000526020600020906004020160030160016101000a81548160ff0219169083151502179055506001600460003373ffffffffffffffffffffffffffffffffffffffff1673ffffffffffffffffffffffffffffffffffffffff1681526020019081526020016000208054905003604051908082528060200260200182016040528015611e865781602001602082028038833980820191505090505b50925060009150600090505b600460003373ffffffffffffffffffffffffffffffffffffffff1673ffffffffffffffffffffffffffffffffffffffff16815260200190815260200160002080549050811015611fc25783600460003373ffffffffffffffffffffffffffffffffffffffff1673ffffffffffffffffffffffffffffffffffffffff16815260200190815260200160002082815481101515611f2957fe5b9060005260206000200154141515611fb557600460003373ffffffffffffffffffffffffffffffffffffffff1673ffffffffffffffffffffffffffffffffffffffff16815260200190815260200160002081815481101515611f8757fe5b90600052602060002001548383806001019450815181101515611fa657fe5b90602001906020020181815250505b8080600101915050611e92565b82600460003373ffffffffffffffffffffffffffffffffffffffff1673ffffffffffffffffffffffffffffffffffffffff1681526020019081526020016000209080519060200190612015929190613a97565b50600c84908060018154018082558091505090600182039060005260206000200160009091929091909150555050505050565b600080600a543481151561205857fe5b049050600954811115151561206c57600080fd5b80600b60003373ffffffffffffffffffffffffffffffffffffffff1673ffffffffffffffffffffffffffffffffffffffff16815260200190815260200160002060008282540192505081905550806009600082825403925050819055508091505090565b600d818154811015156120df57fe5b90600052602060002090600402016000915090508060000160009054906101000a900473ffffffffffffffffffffffffffffffffffffffff16908060010160009054906101000a900473ffffffffffffffffffffffffffffffffffffffff16908060010160149054906101000a900460ff16905083565b60008060006121648561371e565b925092506001600260a0604051908101604052808881526020018681526020018581526020018715158152602001600015158152509080600181540180825580915050906001820390600052602060002090600402016000909192909190915060008201518160000190805190602001906121e0929190613ae4565b50602082015181600101556040820151816002015560608201518160030160006101000a81548160ff02191690831515021790555060808201518160030160016101000a81548160ff0219169083151502179055505050039050336003600083815260200190815260200160002060006101000a81548173ffffffffffffffffffffffffffffffffffffffff021916908373ffffffffffffffffffffffffffffffffffffffff160217905550600460003373ffffffffffffffffffffffffffffffffffffffff1673ffffffffffffffffffffffffffffffffffffffff1681526020019081526020016000208190806001815401808255809150509060018203906000526020600020016000909192909190915055507fa38c36a5508d65570190157ba88d2c600ec5d9a9cf2b90a1a976d7f64769de5e818685856040518085815260200180602001848152602001838152602001828103825285818151815260200191508051906020019080838360005b8381101561236c578082015181840152602081019050612351565b50505050905090810190601f1680156123995780820380516001836020036101000a031916815260200191505b509550505050505060405180910390a15050505050565b6060600c8054806020026020016040519081016040528092919081815260200182805480156123fe57602002820191906000526020600020905b8154815260200190600101908083116123ea575b5050505050905090565b604051806000019050604051809103902060001916600560003373ffffffffffffffffffffffffffffffffffffffff1673ffffffffffffffffffffffffffffffffffffffff16815260200190815260200160002060405180828054600181600116156101000203166002900480156124b75780601f106124955761010080835404028352918201916124b7565b820191906000526020600020905b8154815290600101906020018083116124a3575b50509150506040518091039020600019161415156124d457600080fd5b80600560003373ffffffffffffffffffffffffffffffffffffffff1673ffffffffffffffffffffffffffffffffffffffff1681526020019081526020016000209080519060200190612527929190613b64565b5050565b6060600560008373ffffffffffffffffffffffffffffffffffffffff1673ffffffffffffffffffffffffffffffffffffffff1681526020019081526020016000208054600181600116156101000203166002900480601f0160208091040260200160405190810160405280929190818152602001828054600181600116156101000203166002900480156126005780601f106125d557610100808354040283529160200191612600565b820191906000526020600020905b8154815290600101906020018083116125e357829003601f168201915b50505050509050919050565b6000600d6001600d805490500381548110151561262557fe5b906000526020600020906004020160000160009054906101000a900473ffffffffffffffffffffffffffffffffffffffff16905090565b6000806000806000600a600b60003373ffffffffffffffffffffffffffffffffffffffff1673ffffffffffffffffffffffffffffffffffffffff16815260200190815260200160002054101515156126b357600080fd5b6000600d80549050148061270757506001600d6001600d80549050038154811015156126db57fe5b906000526020600020906004020160010160149054906101000a900460ff16600181111561270557fe5b145b156128ba576001600d6060604051908101604052803373ffffffffffffffffffffffffffffffffffffffff168152602001600073ffffffffffffffffffffffffffffffffffffffff1681526020016000600181111561276257fe5b8152509080600181540180825580915050906001820390600052602060002090600402016000909192909190915060008201518160000160006101000a81548173ffffffffffffffffffffffffffffffffffffffff021916908373ffffffffffffffffffffffffffffffffffffffff16021790555060208201518160010160006101000a81548173ffffffffffffffffffffffffffffffffffffffff021916908373ffffffffffffffffffffffffffffffffffffffff16021790555060408201518160010160146101000a81548160ff0219169083600181111561284257fe5b02179055505050039350600e60003373ffffffffffffffffffffffffffffffffffffffff1673ffffffffffffffffffffffffffffffffffffffff1681526020019081526020016000208490806001815401808255809150509060018203906000526020600020016000909192909190915055506132e5565b3373ffffffffffffffffffffffffffffffffffffffff16600d6001600d80549050038154811015156128e857fe5b906000526020600020906004020160000160009054906101000a900473ffffffffffffffffffffffffffffffffffffffff1673ffffffffffffffffffffffffffffffffffffffff161415151561293d57600080fd5b33600d6001600d805490500381548110151561295557fe5b906000526020600020906004020160010160006101000a81548173ffffffffffffffffffffffffffffffffffffffff021916908373ffffffffffffffffffffffffffffffffffffffff1602179055506001600d80549050039350600e60003373ffffffffffffffffffffffffffffffffffffffff1673ffffffffffffffffffffffffffffffffffffffff168152602001908152602001600020849080600181540180825580915050906001820390600052602060002001600090919290919091505550600d6001600d8054905003815481101515612a2f57fe5b906000526020600020906004020160000160009054906101000a900473ffffffffffffffffffffffffffffffffffffffff169250600d6001600d8054905003815481101515612a7a57fe5b906000526020600020906004020160010160009054906101000a900473ffffffffffffffffffffffffffffffffffffffff169150612ab8838361380b565b90506001600d6001600d8054905003815481101515612ad357fe5b906000526020600020906004020160010160146101000a81548160ff02191690836001811115612aff57fe5b02179055506032811315612dcd576000600d6001600d8054905003815481101515612b2657fe5b906000526020600020906004020160020160008573ffffffffffffffffffffffffffffffffffffffff1673ffffffffffffffffffffffffffffffffffffffff16815260200190815260200160002060006101000a81548160ff02191690836002811115612b8f57fe5b02179055506002600d6001600d8054905003815481101515612bad57fe5b906000526020600020906004020160030160008473ffffffffffffffffffffffffffffffffffffffff1673ffffffffffffffffffffffffffffffffffffffff16815260200190815260200160002060006101000a81548160ff02191690836002811115612c1657fe5b0217905550600a600b60008573ffffffffffffffffffffffffffffffffffffffff1673ffffffffffffffffffffffffffffffffffffffff16815260200190815260200160002060008282540192505081905550600a600b60008473ffffffffffffffffffffffffffffffffffffffff1673ffffffffffffffffffffffffffffffffffffffff168152602001908152602001600020600082825403925050819055507f535313011bcd921f7a5c13b4f26a47be0bb132fd2565b108a96821fd6a5fef4d838386604051808473ffffffffffffffffffffffffffffffffffffffff1673ffffffffffffffffffffffffffffffffffffffff1681526020018373ffffffffffffffffffffffffffffffffffffffff1673ffffffffffffffffffffffffffffffffffffffff1681526020018281526020018060200180602001838103835260038152602001807f57494e0000000000000000000000000000000000000000000000000000000000815250602001838103825260048152602001807f4c4f5345000000000000000000000000000000000000000000000000000000008152506020019550505050505060405180910390a16132e4565b7fffffffffffffffffffffffffffffffffffffffffffffffffffffffffffffffce8112158015612dfe575060328113155b15613027576001600d6001600d8054905003815481101515612e1c57fe5b906000526020600020906004020160020160008573ffffffffffffffffffffffffffffffffffffffff1673ffffffffffffffffffffffffffffffffffffffff16815260200190815260200160002060006101000a81548160ff02191690836002811115612e8557fe5b02179055506001600d6001600d8054905003815481101515612ea357fe5b906000526020600020906004020160030160008473ffffffffffffffffffffffffffffffffffffffff1673ffffffffffffffffffffffffffffffffffffffff16815260200190815260200160002060006101000a81548160ff02191690836002811115612f0c57fe5b02179055507f535313011bcd921f7a5c13b4f26a47be0bb132fd2565b108a96821fd6a5fef4d838386604051808473ffffffffffffffffffffffffffffffffffffffff1673ffffffffffffffffffffffffffffffffffffffff1681526020018373ffffffffffffffffffffffffffffffffffffffff1673ffffffffffffffffffffffffffffffffffffffff1681526020018281526020018060200180602001838103835260038152602001807f57494e0000000000000000000000000000000000000000000000000000000000815250602001838103825260048152602001807f4c4f5345000000000000000000000000000000000000000000000000000000008152506020019550505050505060405180910390a16132e3565b6002600d6001600d805490500381548110151561304057fe5b906000526020600020906004020160020160008573ffffffffffffffffffffffffffffffffffffffff1673ffffffffffffffffffffffffffffffffffffffff16815260200190815260200160002060006101000a81548160ff021916908360028111156130a957fe5b02179055506000600d6001600d80549050038154811015156130c757fe5b906000526020600020906004020160030160008473ffffffffffffffffffffffffffffffffffffffff1673ffffffffffffffffffffffffffffffffffffffff16815260200190815260200160002060006101000a81548160ff0219169083600281111561313057fe5b0217905550600a600b60008573ffffffffffffffffffffffffffffffffffffffff1673ffffffffffffffffffffffffffffffffffffffff16815260200190815260200160002060008282540392505081905550600a600b60008473ffffffffffffffffffffffffffffffffffffffff1673ffffffffffffffffffffffffffffffffffffffff168152602001908152602001600020600082825401925050819055507f535313011bcd921f7a5c13b4f26a47be0bb132fd2565b108a96821fd6a5fef4d838386604051808473ffffffffffffffffffffffffffffffffffffffff1673ffffffffffffffffffffffffffffffffffffffff1681526020018373ffffffffffffffffffffffffffffffffffffffff1673ffffffffffffffffffffffffffffffffffffffff1681526020018281526020018060200180602001838103835260038152602001807f57494e0000000000000000000000000000000000000000000000000000000000815250602001838103825260048152602001807f4c4f5345000000000000000000000000000000000000000000000000000000008152506020019550505050505060405180910390a15b5b5b5050505090565b60095481565b33816003600082815260200190815260200160002060009054906101000a900473ffffffffffffffffffffffffffffffffffffffff1673ffffffffffffffffffffffffffffffffffffffff168273ffffffffffffffffffffffffffffffffffffffff1614151561336157600080fd5b600061336c336134c0565b118015613380575061337e33846135c0565b155b151561338b57600080fd5b600060028481548110151561339c57fe5b906000526020600020906004020160030160006101000a81548160ff021916908315150217905550505050565b6002818154811015156133d857fe5b9060005260206000209060040201600091509050806000018054600181600116156101000203166002900480601f0160208091040260200160405190810160405280929190818152602001828054600181600116156101000203166002900480156134845780601f1061345957610100808354040283529160200191613484565b820191906000526020600020905b81548152906001019060200180831161346757829003601f168201915b5050505050908060010154908060020154908060030160009054906101000a900460ff16908060030160019054906101000a900460ff16905085565b6000806000809150600090505b600460008573ffffffffffffffffffffffffffffffffffffffff1673ffffffffffffffffffffffffffffffffffffffff168152602001908152602001600020805490508110156135b6576002600460008673ffffffffffffffffffffffffffffffffffffffff1673ffffffffffffffffffffffffffffffffffffffff1681526020019081526020016000208281548110151561356557fe5b906000526020600020015481548110151561357c57fe5b906000526020600020906004020160030160009054906101000a900460ff16156135a95781806001019250505b80806001019150506134cd565b8192505050919050565b600080600090505b600460008573ffffffffffffffffffffffffffffffffffffffff1673ffffffffffffffffffffffffffffffffffffffff168152602001908152602001600020805490508110156137125782600460008673ffffffffffffffffffffffffffffffffffffffff1673ffffffffffffffffffffffffffffffffffffffff1681526020019081526020016000208281548110151561365f57fe5b90600052602060002001541480156136f757506002600460008673ffffffffffffffffffffffffffffffffffffffff1673ffffffffffffffffffffffffffffffffffffffff168152602001908152602001600020828154811015156136c057fe5b90600052602060002001548154811015156136d757fe5b906000526020600020906004020160030160009054906101000a900460ff165b156137055760009150613717565b80806001019150506135c8565b600191505b5092915050565b600080600080844260066000815480929190600101919050556040518084805190602001908083835b60208310151561376c5780518252602082019150602081019050602083039250613747565b6001836020036101000a03801982511681845116808217855250505050505090500183815260200182815260200193505050506040518091039020600190049150600154828115156137ba57fe5b069150606480838115156137ca57fe5b048115156137d457fe5b0690506014811115156137ec57603c810190506137fe565b6032811115156137fd57601e810190505b5b8181935093505050915091565b60008060006138198561383e565b91506138248461383e565b90506138308585613986565b818303019250505092915050565b60006060600080600460008673ffffffffffffffffffffffffffffffffffffffff1673ffffffffffffffffffffffffffffffffffffffff1681526020019081526020016000208054806020026020016040519081016040528092919081815260200182805480156138ce57602002820191906000526020600020905b8154815260200190600101908083116138ba575b5050505050925060009150600090505b825181101561397b57600283828151811015156138f757fe5b9060200190602002015181548110151561390d57fe5b906000526020600020906004020160030160009054906101000a900460ff161561396e576002838281518110151561394157fe5b9060200190602002015181548110151561395757fe5b906000526020600020906004020160020154820191505b80806001019150506138de565b819350505050919050565b60008060006101908585426006600081548092919060010191905055604051808573ffffffffffffffffffffffffffffffffffffffff1673ffffffffffffffffffffffffffffffffffffffff166c010000000000000000000000000281526014018473ffffffffffffffffffffffffffffffffffffffff1673ffffffffffffffffffffffffffffffffffffffff166c01000000000000000000000000028152601401838152602001828152602001945050505050604051809103902060019004811515613a4f57fe5b06915060c882039050809250505092915050565b60a0604051908101604052806060815260200160008152602001600081526020016000151581526020016000151581525090565b828054828255906000526020600020908101928215613ad3579160200282015b82811115613ad2578251825591602001919060010190613ab7565b5b509050613ae09190613be4565b5090565b828054600181600116156101000203166002900490600052602060002090601f016020900481019282601f10613b2557805160ff1916838001178555613b53565b82800160010185558215613b53579182015b82811115613b52578251825591602001919060010190613b37565b5b509050613b609190613be4565b5090565b828054600181600116156101000203166002900490600052602060002090601f016020900481019282601f10613ba557805160ff1916838001178555613bd3565b82800160010185558215613bd3579182015b82811115613bd2578251825591602001919060010190613bb7565b5b509050613be09190613be4565b5090565b613c0691905b80821115613c02576000816000905550600101613bea565b5090565b905600a165627a7a7230582066444de304e910dcd6deb47e875ccfc5501eab54ac028b81ff16785f1f552fc20029",
  "source": "pragma solidity ^0.4.23;\nimport \"./Match.sol\";\n\ncontract WorldCup is Match {\n\n    constructor(uint totalTokens, uint pricePerToken) public {\n        totalTokenSupply = totalTokens;\n        balanceTokens = totalTokens;\n        tokenPrice = pricePerToken;\n    }\n\n    function getBalanceOf(address _owner) view public returns (uint) {\n        return ownerOwnedTokens[_owner];\n    }\n\n    function buy() payable public returns (uint) {\n        uint tokensToBuy = msg.value / tokenPrice;\n        require(tokensToBuy <= balanceTokens);\n        ownerOwnedTokens[msg.sender] += tokensToBuy;\n        balanceTokens -= tokensToBuy;\n\n        return tokensToBuy;\n    }\n}",
  "sourcePath": "/Users/James/Project/worldcuptest/contracts/WorldCup.sol",
  "compiler": {
    "name": "solc",
    "version": "0.4.24+commit.e67f0147.Emscripten.clang"
  },
  "schemaVersion": "2.0.1",
  "updatedAt": "2018-07-15T05:08:16.918Z"
}